{"contracts/EventsApp.sol":{"EventsApp":{"abi":[{"inputs":[{"internalType":"uint16","name":"_numberOfRounds","type":"uint16"},{"internalType":"uint16","name":"_workersRequired","type":"uint16"}],"stateMutability":"nonpayable","type":"constructor"},{"anonymous":false,"inputs":[{"indexed":false,"internalType":"uint16","name":"numberOfSeeds","type":"uint16"},{"indexed":false,"internalType":"uint16","name":"upperBound","type":"uint16"}],"name":"NeedRandomness","type":"event"},{"anonymous":false,"inputs":[{"indexed":false,"internalType":"string[]","name":"previousWork","type":"string[]"},{"indexed":false,"internalType":"uint16","name":"roundNumber","type":"uint16"}],"name":"RoundStarted","type":"event"},{"anonymous":false,"inputs":[{"indexed":false,"internalType":"address[]","name":"workers","type":"address[]"}],"name":"Selected","type":"event"},{"anonymous":false,"inputs":[],"name":"TaskEnded","type":"event"},{"inputs":[{"internalType":"string","name":"work","type":"string"},{"internalType":"uint256[]","name":"votes","type":"uint256[]"}],"name":"commitWork","outputs":[],"stateMutability":"nonpayable","type":"function"},{"inputs":[],"name":"register","outputs":[],"stateMutability":"nonpayable","type":"function"},{"inputs":[{"internalType":"uint16[]","name":"_seeds","type":"uint16[]"}],"name":"setRandomness","outputs":[],"stateMutability":"nonpayable","type":"function"}],"evm":{"bytecode":{"linkReferences":{},"object":"60806040523480156200001157600080fd5b5060405162002428380380620024288339818101604052810190620000379190620001a3565b81600160006101000a81548161ffff021916908361ffff16021790555080600160026101000a81548161ffff021916908361ffff160217905550600160009054906101000a900461ffff16600160029054906101000a900461ffff166200009f919062000248565b600160046101000a81548161ffff021916908361ffff1602179055506000600760006101000a81548161ffff021916908361ffff16021790555060005b600160049054906101000a900461ffff1661ffff168161ffff16101562000156576005806001815401808255809150506001900390600052602060002001600060405180602001604052806000815250909190915090816200013f9190620004fa565b5080806200014d90620005e1565b915050620000dc565b50505062000610565b600080fd5b600061ffff82169050919050565b6200017d8162000164565b81146200018957600080fd5b50565b6000815190506200019d8162000172565b92915050565b60008060408385031215620001bd57620001bc6200015f565b5b6000620001cd858286016200018c565b9250506020620001e0858286016200018c565b9150509250929050565b7f4e487b7100000000000000000000000000000000000000000000000000000000600052601260045260246000fd5b7f4e487b7100000000000000000000000000000000000000000000000000000000600052601160045260246000fd5b6000620002558262000164565b9150620002628362000164565b925082620002755762000274620001ea565b5b828204905092915050565b600081519050919050565b7f4e487b7100000000000000000000000000000000000000000000000000000000600052604160045260246000fd5b7f4e487b7100000000000000000000000000000000000000000000000000000000600052602260045260246000fd5b600060028204905060018216806200030257607f821691505b602082108103620003185762000317620002ba565b5b50919050565b60008190508160005260206000209050919050565b60006020601f8301049050919050565b600082821b905092915050565b600060088302620003827fffffffffffffffffffffffffffffffffffffffffffffffffffffffffffffffff8262000343565b6200038e868362000343565b95508019841693508086168417925050509392505050565b6000819050919050565b6000819050919050565b6000620003db620003d5620003cf84620003a6565b620003b0565b620003a6565b9050919050565b6000819050919050565b620003f783620003ba565b6200040f6200040682620003e2565b84845462000350565b825550505050565b600090565b6200042662000417565b62000433818484620003ec565b505050565b5b818110156200045b576200044f6000826200041c565b60018101905062000439565b5050565b601f821115620004aa5762000474816200031e565b6200047f8462000333565b810160208510156200048f578190505b620004a76200049e8562000333565b83018262000438565b50505b505050565b600082821c905092915050565b6000620004cf60001984600802620004af565b1980831691505092915050565b6000620004ea8383620004bc565b9150826002028217905092915050565b620005058262000280565b67ffffffffffffffff8111156200052157620005206200028b565b5b6200052d8254620002e9565b6200053a8282856200045f565b600060209050601f8311600181146200057257600084156200055d578287015190505b620005698582620004dc565b865550620005d9565b601f19841662000582866200031e565b60005b82811015620005ac5784890151825560018201915060208501945060208101905062000585565b86831015620005cc5784890151620005c8601f891682620004bc565b8355505b6001600288020188555050505b505050505050565b6000620005ee8262000164565b915061ffff820362000605576200060462000219565b5b600182019050919050565b611e0880620006206000396000f3fe608060405234801561001057600080fd5b50600436106100415760003560e01c80631aa3a0081461004657806333dcfacc1461005057806364e7eaf51461006c575b600080fd5b61004e610088565b005b61006a6004803603810190610065919061121b565b610201565b005b61008660048036038101906100819190611390565b610523565b005b600160029054906101000a900461ffff1661ffff16600280549050106100e3576040517f08c379a00000000000000000000000000000000000000000000000000000000081526004016100da90611436565b60405180910390fd5b6002600181600181540180825580915050039060005260206000200160009054906101000a90505033600260016002805490506101209190611485565b81548110610131576101306114b9565b5b9060005260206000200160006101000a81548173ffffffffffffffffffffffffffffffffffffffff021916908373ffffffffffffffffffffffffffffffffffffffff160217905550600160029054906101000a900461ffff1661ffff16600280549050036101ff577ffbad8ae1f42d0c027ec6bd76c01e4dd0e0645980a8271e2d081b5d75ecf3f979600160009054906101000a900461ffff16600a600160049054906101000a900461ffff166101e891906114e8565b6040516101f6929190611534565b60405180910390a15b565b6006600760009054906101000a900461ffff1661ffff1681548110610229576102286114b9565b5b9060005260206000209060040201600201600181600181540180825580915050039060005260206000205050336006600760009054906101000a900461ffff1661ffff168154811061027e5761027d6114b9565b5b90600052602060002090600402016001016006600760009054906101000a900461ffff1661ffff16815481106102b7576102b66114b9565b5b906000526020600020906004020160000160009054906101000a900461ffff1661ffff16815481106102ec576102eb6114b9565b5b9060005260206000200160006101000a81548173ffffffffffffffffffffffffffffffffffffffff021916908373ffffffffffffffffffffffffffffffffffffffff160217905550816006600760009054906101000a900461ffff1661ffff168154811061035d5761035c6114b9565b5b90600052602060002090600402016002016006600760009054906101000a900461ffff1661ffff1681548110610396576103956114b9565b5b906000526020600020906004020160000160009054906101000a900461ffff1661ffff16815481106103cb576103ca6114b9565b5b9060005260206000200190816103e19190611774565b506006600760009054906101000a900461ffff1661ffff168154811061040a576104096114b9565b5b9060005260206000209060040201600001600081819054906101000a900461ffff168092919061043990611846565b91906101000a81548161ffff021916908361ffff160217905550506000600760009054906101000a900461ffff1661ffff161461047a5761047981610545565b5b600160049054906101000a900461ffff1661ffff166006600760009054906101000a900461ffff1661ffff16815481106104b7576104b66114b9565b5b906000526020600020906004020160000160009054906101000a900461ffff1661ffff160361051f576105166040518060600160405280602d8152602001611da6602d9139600760009054906101000a900461ffff1661ffff16610606565b61051e6106a2565b5b5050565b8060009080519060200190610539929190610ef2565b50610542610715565b50565b60005b81518161ffff16101561060257818161ffff168151811061056c5761056b6114b9565b5b602002602001015160066001600760009054906101000a900461ffff166105939190611870565b61ffff16815481106105a8576105a76114b9565b5b90600052602060002090600402016003018261ffff16815481106105cf576105ce6114b9565b5b9060005260206000200160008282546105e891906118a6565b9250508190555080806105fa90611846565b915050610548565b5050565b61069e828260405160240161061c92919061194c565b6040516020818303038152906040527fb60e72cc000000000000000000000000000000000000000000000000000000007bffffffffffffffffffffffffffffffffffffffffffffffffffffffff19166020820180517bffffffffffffffffffffffffffffffffffffffffffffffffffffffff83818316178352505050506108d5565b5050565b600160009054906101000a900461ffff1661ffff16600680549050036106cf576106ca6108ef565b610713565b6007600081819054906101000a900461ffff16809291906106ef90611846565b91906101000a81548161ffff021916908361ffff16021790555050610712610715565b5b565b6107686040518060400160405280601881526020017f5374617274696e6720726f756e64206e756d6265722025730000000000000000815250600760009054906101000a900461ffff1661ffff16610606565b6006600181600181540180825580915050039060005260206000209050506107da6000600760009054906101000a900461ffff1661ffff16815481106107b1576107b06114b9565b5b90600052602060002090601091828204019190066002029054906101000a900461ffff1661091d565b6000600760009054906101000a900461ffff1661ffff1603610845577f150fcfabe9f7a7813459239366cb280600535b5ddd553b1449e25c02ebb5b7bd6005600760009054906101000a900461ffff16604051610838929190611ad7565b60405180910390a16108d3565b7f150fcfabe9f7a7813459239366cb280600535b5ddd553b1449e25c02ebb5b7bd60066001600760009054906101000a900461ffff166108859190611870565b61ffff168154811061089a576108996114b9565b5b9060005260206000209060040201600201600760009054906101000a900461ffff166040516108ca929190611ad7565b60405180910390a15b565b6108ec816108e4610c9e610cbf565b63ffffffff16565b50565b7f513605bebe244bbc21f30ca5c868c5728a1c1d7d5d7746302261c27e03a1645160405160405180910390a1565b61095b6040518060400160405280601481526020017f53656c656374696e6720776f726b6572732e2e2e000000000000000000000000815250610cca565b60005b600160049054906101000a900461ffff1661ffff168161ffff161015610c2b576006600760009054906101000a900461ffff1661ffff16815481106109a6576109a56114b9565b5b90600052602060002090600402016003016001816001815401808255809150500390600052602060002050506006600760009054906101000a900461ffff1661ffff16815481106109fa576109f96114b9565b5b9060005260206000209060040201600101600181600181540180825580915050039060005260206000200160009054906101000a905050600080600280805490508486610a479190611b07565b61ffff16610a559190611b6c565b81548110610a6657610a656114b9565b5b9060005260206000200160009054906101000a900473ffffffffffffffffffffffffffffffffffffffff1690505b610aa8816003610d6390919063ffffffff16565b15610b2a578180610ab890611846565b92505060028080549050838587610acf9190611b07565b610ad99190611b07565b61ffff16610ae79190611b6c565b81548110610af857610af76114b9565b5b9060005260206000200160009054906101000a900473ffffffffffffffffffffffffffffffffffffffff169050610a94565b806006600760009054906101000a900461ffff1661ffff1681548110610b5357610b526114b9565b5b90600052602060002090600402016001018461ffff1681548110610b7a57610b796114b9565b5b9060005260206000200160006101000a81548173ffffffffffffffffffffffffffffffffffffffff021916908373ffffffffffffffffffffffffffffffffffffffff160217905550610bd6816003610d9390919063ffffffff16565b50610c166040518060400160405280601e81526020017f53656c656374656420776f726b657220617420616464726573733a202573000081525082610dc3565b50508080610c2390611846565b91505061095e565b507ffbe4e23acf42b10f8cf80b88d97a71e590ef8d1e3dc8fcb5640718897bbd209c6006600760009054906101000a900461ffff1661ffff1681548110610c7557610c746114b9565b5b9060005260206000209060040201600101604051610c939190611cf3565b60405180910390a150565b60006a636f6e736f6c652e6c6f679050600080835160208501845afa505050565b610f9c819050919050565b610d6081604051602401610cde9190611d15565b6040516020818303038152906040527f41304fac000000000000000000000000000000000000000000000000000000007bffffffffffffffffffffffffffffffffffffffffffffffffffffffff19166020820180517bffffffffffffffffffffffffffffffffffffffffffffffffffffffff83818316178352505050506108d5565b50565b6000610d8b836000018373ffffffffffffffffffffffffffffffffffffffff1660001b610e5f565b905092915050565b6000610dbb836000018373ffffffffffffffffffffffffffffffffffffffff1660001b610e82565b905092915050565b610e5b8282604051602401610dd9929190611d46565b6040516020818303038152906040527f319af333000000000000000000000000000000000000000000000000000000007bffffffffffffffffffffffffffffffffffffffffffffffffffffffff19166020820180517bffffffffffffffffffffffffffffffffffffffffffffffffffffffff83818316178352505050506108d5565b5050565b600080836001016000848152602001908152602001600020541415905092915050565b6000610e8e8383610e5f565b610ee7578260000182908060018154018082558091505060019003906000526020600020016000909190919091505582600001805490508360010160008481526020019081526020016000208190555060019050610eec565b600090505b92915050565b82805482825590600052602060002090600f01601090048101928215610f8b5791602002820160005b83821115610f5b57835183826101000a81548161ffff021916908361ffff1602179055509260200192600201602081600101049283019260010302610f1b565b8015610f895782816101000a81549061ffff0219169055600201602081600101049283019260010302610f5b565b505b509050610f989190610fa6565b5090565b610fa4611d76565b565b5b80821115610fbf576000816000905550600101610fa7565b5090565b6000604051905090565b600080fd5b600080fd5b600080fd5b600080fd5b6000601f19601f8301169050919050565b7f4e487b7100000000000000000000000000000000000000000000000000000000600052604160045260246000fd5b61102a82610fe1565b810181811067ffffffffffffffff8211171561104957611048610ff2565b5b80604052505050565b600061105c610fc3565b90506110688282611021565b919050565b600067ffffffffffffffff82111561108857611087610ff2565b5b61109182610fe1565b9050602081019050919050565b82818337600083830152505050565b60006110c06110bb8461106d565b611052565b9050828152602081018484840111156110dc576110db610fdc565b5b6110e784828561109e565b509392505050565b600082601f83011261110457611103610fd7565b5b81356111148482602086016110ad565b91505092915050565b600067ffffffffffffffff82111561113857611137610ff2565b5b602082029050602081019050919050565b600080fd5b6000819050919050565b6111618161114e565b811461116c57600080fd5b50565b60008135905061117e81611158565b92915050565b60006111976111928461111d565b611052565b905080838252602082019050602084028301858111156111ba576111b9611149565b5b835b818110156111e357806111cf888261116f565b8452602084019350506020810190506111bc565b5050509392505050565b600082601f83011261120257611201610fd7565b5b8135611212848260208601611184565b91505092915050565b6000806040838503121561123257611231610fcd565b5b600083013567ffffffffffffffff8111156112505761124f610fd2565b5b61125c858286016110ef565b925050602083013567ffffffffffffffff81111561127d5761127c610fd2565b5b611289858286016111ed565b9150509250929050565b600067ffffffffffffffff8211156112ae576112ad610ff2565b5b602082029050602081019050919050565b600061ffff82169050919050565b6112d6816112bf565b81146112e157600080fd5b50565b6000813590506112f3816112cd565b92915050565b600061130c61130784611293565b611052565b9050808382526020820190506020840283018581111561132f5761132e611149565b5b835b81811015611358578061134488826112e4565b845260208401935050602081019050611331565b5050509392505050565b600082601f83011261137757611376610fd7565b5b81356113878482602086016112f9565b91505092915050565b6000602082840312156113a6576113a5610fcd565b5b600082013567ffffffffffffffff8111156113c4576113c3610fd2565b5b6113d084828501611362565b91505092915050565b600082825260208201905092915050565b7f496d706f737369626c6520746f20726567697374657221000000000000000000600082015250565b60006114206017836113d9565b915061142b826113ea565b602082019050919050565b6000602082019050818103600083015261144f81611413565b9050919050565b7f4e487b7100000000000000000000000000000000000000000000000000000000600052601160045260246000fd5b60006114908261114e565b915061149b8361114e565b92508282039050818111156114b3576114b2611456565b5b92915050565b7f4e487b7100000000000000000000000000000000000000000000000000000000600052603260045260246000fd5b60006114f3826112bf565b91506114fe836112bf565b925082820261150c816112bf565b915080821461151e5761151d611456565b5b5092915050565b61152e816112bf565b82525050565b60006040820190506115496000830185611525565b6115566020830184611525565b9392505050565b600081519050919050565b7f4e487b7100000000000000000000000000000000000000000000000000000000600052602260045260246000fd5b600060028204905060018216806115af57607f821691505b6020821081036115c2576115c1611568565b5b50919050565b60008190508160005260206000209050919050565b60006020601f8301049050919050565b600082821b905092915050565b60006008830261162a7fffffffffffffffffffffffffffffffffffffffffffffffffffffffffffffffff826115ed565b61163486836115ed565b95508019841693508086168417925050509392505050565b6000819050919050565b600061167161166c6116678461114e565b61164c565b61114e565b9050919050565b6000819050919050565b61168b83611656565b61169f61169782611678565b8484546115fa565b825550505050565b600090565b6116b46116a7565b6116bf818484611682565b505050565b5b818110156116e3576116d86000826116ac565b6001810190506116c5565b5050565b601f821115611728576116f9816115c8565b611702846115dd565b81016020851015611711578190505b61172561171d856115dd565b8301826116c4565b50505b505050565b600082821c905092915050565b600061174b6000198460080261172d565b1980831691505092915050565b6000611764838361173a565b9150826002028217905092915050565b61177d8261155d565b67ffffffffffffffff81111561179657611795610ff2565b5b6117a08254611597565b6117ab8282856116e7565b600060209050601f8311600181146117de57600084156117cc578287015190505b6117d68582611758565b86555061183e565b601f1984166117ec866115c8565b60005b82811015611814578489015182556001820191506020850194506020810190506117ef565b86831015611831578489015161182d601f89168261173a565b8355505b6001600288020188555050505b505050505050565b6000611851826112bf565b915061ffff820361186557611864611456565b5b600182019050919050565b600061187b826112bf565b9150611886836112bf565b9250828203905061ffff8111156118a05761189f611456565b5b92915050565b60006118b18261114e565b91506118bc8361114e565b92508282019050808211156118d4576118d3611456565b5b92915050565b60005b838110156118f85780820151818401526020810190506118dd565b60008484015250505050565b600061190f8261155d565b61191981856113d9565b93506119298185602086016118da565b61193281610fe1565b840191505092915050565b6119468161114e565b82525050565b600060408201905081810360008301526119668185611904565b9050611975602083018461193d565b9392505050565b600081549050919050565b600082825260208201905092915050565b60008190508160005260206000209050919050565b600082825260208201905092915050565b600081546119cb81611597565b6119d581866119ad565b945060018216600081146119f05760018114611a0657611a39565b60ff198316865281151560200286019350611a39565b611a0f856115c8565b60005b83811015611a3157815481890152600182019150602081019050611a12565b808801955050505b50505092915050565b6000611a4e83836119be565b905092915050565b6000600182019050919050565b6000611a6e8261197c565b611a788185611987565b935083602082028501611a8a85611998565b8060005b85811015611ac557848403895281611aa68582611a42565b9450611ab183611a56565b925060208a01995050600181019050611a8e565b50829750879550505050505092915050565b60006040820190508181036000830152611af18185611a63565b9050611b006020830184611525565b9392505050565b6000611b12826112bf565b9150611b1d836112bf565b9250828201905061ffff811115611b3757611b36611456565b5b92915050565b7f4e487b7100000000000000000000000000000000000000000000000000000000600052601260045260246000fd5b6000611b778261114e565b9150611b828361114e565b925082611b9257611b91611b3d565b5b828206905092915050565b600081549050919050565b600082825260208201905092915050565b60008190508160005260206000209050919050565b600073ffffffffffffffffffffffffffffffffffffffff82169050919050565b6000611bf982611bce565b9050919050565b611c0981611bee565b82525050565b6000611c1b8383611c00565b60208301905092915050565b60008160001c9050919050565b600073ffffffffffffffffffffffffffffffffffffffff82169050919050565b6000611c67611c6283611c27565b611c34565b9050919050565b6000611c7a8254611c54565b9050919050565b6000600182019050919050565b6000611c9982611b9d565b611ca38185611ba8565b9350611cae83611bb9565b8060005b83811015611ce657611cc382611c6e565b611ccd8882611c0f565b9750611cd883611c81565b925050600181019050611cb2565b5085935050505092915050565b60006020820190508181036000830152611d0d8184611c8e565b905092915050565b60006020820190508181036000830152611d2f8184611904565b905092915050565b611d4081611bee565b82525050565b60006040820190508181036000830152611d608185611904565b9050611d6f6020830184611d37565b9392505050565b7f4e487b7100000000000000000000000000000000000000000000000000000000600052605160045260246000fdfe416c6c20776f726b657273207375626d697474656420746865697220776f726b20666f7220726f756e64202573a264697066735822122049688f16a49565d6f78880ede2e4d1fbfbe294ef0d43c06d3019e521c4cf084464736f6c63430008140033","opcodes":"PUSH1 0x80 PUSH1 0x40 MSTORE CALLVALUE DUP1 ISZERO PUSH3 0x11 JUMPI PUSH1 0x0 DUP1 REVERT JUMPDEST POP PUSH1 0x40 MLOAD PUSH3 0x2428 CODESIZE SUB DUP1 PUSH3 0x2428 DUP4 CODECOPY DUP2 DUP2 ADD PUSH1 0x40 MSTORE DUP2 ADD SWAP1 PUSH3 0x37 SWAP2 SWAP1 PUSH3 0x1A3 JUMP JUMPDEST DUP2 PUSH1 0x1 PUSH1 0x0 PUSH2 0x100 EXP DUP2 SLOAD DUP2 PUSH2 0xFFFF MUL NOT AND SWAP1 DUP4 PUSH2 0xFFFF AND MUL OR SWAP1 SSTORE POP DUP1 PUSH1 0x1 PUSH1 0x2 PUSH2 0x100 EXP DUP2 SLOAD DUP2 PUSH2 0xFFFF MUL NOT AND SWAP1 DUP4 PUSH2 0xFFFF AND MUL OR SWAP1 SSTORE POP PUSH1 0x1 PUSH1 0x0 SWAP1 SLOAD SWAP1 PUSH2 0x100 EXP SWAP1 DIV PUSH2 0xFFFF AND PUSH1 0x1 PUSH1 0x2 SWAP1 SLOAD SWAP1 PUSH2 0x100 EXP SWAP1 DIV PUSH2 0xFFFF AND PUSH3 0x9F SWAP2 SWAP1 PUSH3 0x248 JUMP JUMPDEST PUSH1 0x1 PUSH1 0x4 PUSH2 0x100 EXP DUP2 SLOAD DUP2 PUSH2 0xFFFF MUL NOT AND SWAP1 DUP4 PUSH2 0xFFFF AND MUL OR SWAP1 SSTORE POP PUSH1 0x0 PUSH1 0x7 PUSH1 0x0 PUSH2 0x100 EXP DUP2 SLOAD DUP2 PUSH2 0xFFFF MUL NOT AND SWAP1 DUP4 PUSH2 0xFFFF AND MUL OR SWAP1 SSTORE POP PUSH1 0x0 JUMPDEST PUSH1 0x1 PUSH1 0x4 SWAP1 SLOAD SWAP1 PUSH2 0x100 EXP SWAP1 DIV PUSH2 0xFFFF AND PUSH2 0xFFFF AND DUP2 PUSH2 0xFFFF AND LT ISZERO PUSH3 0x156 JUMPI PUSH1 0x5 DUP1 PUSH1 0x1 DUP2 SLOAD ADD DUP1 DUP3 SSTORE DUP1 SWAP2 POP POP PUSH1 0x1 SWAP1 SUB SWAP1 PUSH1 0x0 MSTORE PUSH1 0x20 PUSH1 0x0 KECCAK256 ADD PUSH1 0x0 PUSH1 0x40 MLOAD DUP1 PUSH1 0x20 ADD PUSH1 0x40 MSTORE DUP1 PUSH1 0x0 DUP2 MSTORE POP SWAP1 SWAP2 SWAP1 SWAP2 POP SWAP1 DUP2 PUSH3 0x13F SWAP2 SWAP1 PUSH3 0x4FA JUMP JUMPDEST POP DUP1 DUP1 PUSH3 0x14D SWAP1 PUSH3 0x5E1 JUMP JUMPDEST SWAP2 POP POP PUSH3 0xDC JUMP JUMPDEST POP POP POP PUSH3 0x610 JUMP JUMPDEST PUSH1 0x0 DUP1 REVERT JUMPDEST PUSH1 0x0 PUSH2 0xFFFF DUP3 AND SWAP1 POP SWAP2 SWAP1 POP JUMP JUMPDEST PUSH3 0x17D DUP2 PUSH3 0x164 JUMP JUMPDEST DUP2 EQ PUSH3 0x189 JUMPI PUSH1 0x0 DUP1 REVERT JUMPDEST POP JUMP JUMPDEST PUSH1 0x0 DUP2 MLOAD SWAP1 POP PUSH3 0x19D DUP2 PUSH3 0x172 JUMP JUMPDEST SWAP3 SWAP2 POP POP JUMP JUMPDEST PUSH1 0x0 DUP1 PUSH1 0x40 DUP4 DUP6 SUB SLT ISZERO PUSH3 0x1BD JUMPI PUSH3 0x1BC PUSH3 0x15F JUMP JUMPDEST JUMPDEST PUSH1 0x0 PUSH3 0x1CD DUP6 DUP3 DUP7 ADD PUSH3 0x18C JUMP JUMPDEST SWAP3 POP POP PUSH1 0x20 PUSH3 0x1E0 DUP6 DUP3 DUP7 ADD PUSH3 0x18C JUMP JUMPDEST SWAP2 POP POP SWAP3 POP SWAP3 SWAP1 POP JUMP JUMPDEST PUSH32 0x4E487B7100000000000000000000000000000000000000000000000000000000 PUSH1 0x0 MSTORE PUSH1 0x12 PUSH1 0x4 MSTORE PUSH1 0x24 PUSH1 0x0 REVERT JUMPDEST PUSH32 0x4E487B7100000000000000000000000000000000000000000000000000000000 PUSH1 0x0 MSTORE PUSH1 0x11 PUSH1 0x4 MSTORE PUSH1 0x24 PUSH1 0x0 REVERT JUMPDEST PUSH1 0x0 PUSH3 0x255 DUP3 PUSH3 0x164 JUMP JUMPDEST SWAP2 POP PUSH3 0x262 DUP4 PUSH3 0x164 JUMP JUMPDEST SWAP3 POP DUP3 PUSH3 0x275 JUMPI PUSH3 0x274 PUSH3 0x1EA JUMP JUMPDEST JUMPDEST DUP3 DUP3 DIV SWAP1 POP SWAP3 SWAP2 POP POP JUMP JUMPDEST PUSH1 0x0 DUP2 MLOAD SWAP1 POP SWAP2 SWAP1 POP JUMP JUMPDEST PUSH32 0x4E487B7100000000000000000000000000000000000000000000000000000000 PUSH1 0x0 MSTORE PUSH1 0x41 PUSH1 0x4 MSTORE PUSH1 0x24 PUSH1 0x0 REVERT JUMPDEST PUSH32 0x4E487B7100000000000000000000000000000000000000000000000000000000 PUSH1 0x0 MSTORE PUSH1 0x22 PUSH1 0x4 MSTORE PUSH1 0x24 PUSH1 0x0 REVERT JUMPDEST PUSH1 0x0 PUSH1 0x2 DUP3 DIV SWAP1 POP PUSH1 0x1 DUP3 AND DUP1 PUSH3 0x302 JUMPI PUSH1 0x7F DUP3 AND SWAP2 POP JUMPDEST PUSH1 0x20 DUP3 LT DUP2 SUB PUSH3 0x318 JUMPI PUSH3 0x317 PUSH3 0x2BA JUMP JUMPDEST JUMPDEST POP SWAP2 SWAP1 POP JUMP JUMPDEST PUSH1 0x0 DUP2 SWAP1 POP DUP2 PUSH1 0x0 MSTORE PUSH1 0x20 PUSH1 0x0 KECCAK256 SWAP1 POP SWAP2 SWAP1 POP JUMP JUMPDEST PUSH1 0x0 PUSH1 0x20 PUSH1 0x1F DUP4 ADD DIV SWAP1 POP SWAP2 SWAP1 POP JUMP JUMPDEST PUSH1 0x0 DUP3 DUP3 SHL SWAP1 POP SWAP3 SWAP2 POP POP JUMP JUMPDEST PUSH1 0x0 PUSH1 0x8 DUP4 MUL PUSH3 0x382 PUSH32 0xFFFFFFFFFFFFFFFFFFFFFFFFFFFFFFFFFFFFFFFFFFFFFFFFFFFFFFFFFFFFFFFF DUP3 PUSH3 0x343 JUMP JUMPDEST PUSH3 0x38E DUP7 DUP4 PUSH3 0x343 JUMP JUMPDEST SWAP6 POP DUP1 NOT DUP5 AND SWAP4 POP DUP1 DUP7 AND DUP5 OR SWAP3 POP POP POP SWAP4 SWAP3 POP POP POP JUMP JUMPDEST PUSH1 0x0 DUP2 SWAP1 POP SWAP2 SWAP1 POP JUMP JUMPDEST PUSH1 0x0 DUP2 SWAP1 POP SWAP2 SWAP1 POP JUMP JUMPDEST PUSH1 0x0 PUSH3 0x3DB PUSH3 0x3D5 PUSH3 0x3CF DUP5 PUSH3 0x3A6 JUMP JUMPDEST PUSH3 0x3B0 JUMP JUMPDEST PUSH3 0x3A6 JUMP JUMPDEST SWAP1 POP SWAP2 SWAP1 POP JUMP JUMPDEST PUSH1 0x0 DUP2 SWAP1 POP SWAP2 SWAP1 POP JUMP JUMPDEST PUSH3 0x3F7 DUP4 PUSH3 0x3BA JUMP JUMPDEST PUSH3 0x40F PUSH3 0x406 DUP3 PUSH3 0x3E2 JUMP JUMPDEST DUP5 DUP5 SLOAD PUSH3 0x350 JUMP JUMPDEST DUP3 SSTORE POP POP POP POP JUMP JUMPDEST PUSH1 0x0 SWAP1 JUMP JUMPDEST PUSH3 0x426 PUSH3 0x417 JUMP JUMPDEST PUSH3 0x433 DUP2 DUP5 DUP5 PUSH3 0x3EC JUMP JUMPDEST POP POP POP JUMP JUMPDEST JUMPDEST DUP2 DUP2 LT ISZERO PUSH3 0x45B JUMPI PUSH3 0x44F PUSH1 0x0 DUP3 PUSH3 0x41C JUMP JUMPDEST PUSH1 0x1 DUP2 ADD SWAP1 POP PUSH3 0x439 JUMP JUMPDEST POP POP JUMP JUMPDEST PUSH1 0x1F DUP3 GT ISZERO PUSH3 0x4AA JUMPI PUSH3 0x474 DUP2 PUSH3 0x31E JUMP JUMPDEST PUSH3 0x47F DUP5 PUSH3 0x333 JUMP JUMPDEST DUP2 ADD PUSH1 0x20 DUP6 LT ISZERO PUSH3 0x48F JUMPI DUP2 SWAP1 POP JUMPDEST PUSH3 0x4A7 PUSH3 0x49E DUP6 PUSH3 0x333 JUMP JUMPDEST DUP4 ADD DUP3 PUSH3 0x438 JUMP JUMPDEST POP POP JUMPDEST POP POP POP JUMP JUMPDEST PUSH1 0x0 DUP3 DUP3 SHR SWAP1 POP SWAP3 SWAP2 POP POP JUMP JUMPDEST PUSH1 0x0 PUSH3 0x4CF PUSH1 0x0 NOT DUP5 PUSH1 0x8 MUL PUSH3 0x4AF JUMP JUMPDEST NOT DUP1 DUP4 AND SWAP2 POP POP SWAP3 SWAP2 POP POP JUMP JUMPDEST PUSH1 0x0 PUSH3 0x4EA DUP4 DUP4 PUSH3 0x4BC JUMP JUMPDEST SWAP2 POP DUP3 PUSH1 0x2 MUL DUP3 OR SWAP1 POP SWAP3 SWAP2 POP POP JUMP JUMPDEST PUSH3 0x505 DUP3 PUSH3 0x280 JUMP JUMPDEST PUSH8 0xFFFFFFFFFFFFFFFF DUP2 GT ISZERO PUSH3 0x521 JUMPI PUSH3 0x520 PUSH3 0x28B JUMP JUMPDEST JUMPDEST PUSH3 0x52D DUP3 SLOAD PUSH3 0x2E9 JUMP JUMPDEST PUSH3 0x53A DUP3 DUP3 DUP6 PUSH3 0x45F JUMP JUMPDEST PUSH1 0x0 PUSH1 0x20 SWAP1 POP PUSH1 0x1F DUP4 GT PUSH1 0x1 DUP2 EQ PUSH3 0x572 JUMPI PUSH1 0x0 DUP5 ISZERO PUSH3 0x55D JUMPI DUP3 DUP8 ADD MLOAD SWAP1 POP JUMPDEST PUSH3 0x569 DUP6 DUP3 PUSH3 0x4DC JUMP JUMPDEST DUP7 SSTORE POP PUSH3 0x5D9 JUMP JUMPDEST PUSH1 0x1F NOT DUP5 AND PUSH3 0x582 DUP7 PUSH3 0x31E JUMP JUMPDEST PUSH1 0x0 JUMPDEST DUP3 DUP2 LT ISZERO PUSH3 0x5AC JUMPI DUP5 DUP10 ADD MLOAD DUP3 SSTORE PUSH1 0x1 DUP3 ADD SWAP2 POP PUSH1 0x20 DUP6 ADD SWAP5 POP PUSH1 0x20 DUP2 ADD SWAP1 POP PUSH3 0x585 JUMP JUMPDEST DUP7 DUP4 LT ISZERO PUSH3 0x5CC JUMPI DUP5 DUP10 ADD MLOAD PUSH3 0x5C8 PUSH1 0x1F DUP10 AND DUP3 PUSH3 0x4BC JUMP JUMPDEST DUP4 SSTORE POP JUMPDEST PUSH1 0x1 PUSH1 0x2 DUP9 MUL ADD DUP9 SSTORE POP POP POP JUMPDEST POP POP POP POP POP POP JUMP JUMPDEST PUSH1 0x0 PUSH3 0x5EE DUP3 PUSH3 0x164 JUMP JUMPDEST SWAP2 POP PUSH2 0xFFFF DUP3 SUB PUSH3 0x605 JUMPI PUSH3 0x604 PUSH3 0x219 JUMP JUMPDEST JUMPDEST PUSH1 0x1 DUP3 ADD SWAP1 POP SWAP2 SWAP1 POP JUMP JUMPDEST PUSH2 0x1E08 DUP1 PUSH3 0x620 PUSH1 0x0 CODECOPY PUSH1 0x0 RETURN INVALID PUSH1 0x80 PUSH1 0x40 MSTORE CALLVALUE DUP1 ISZERO PUSH2 0x10 JUMPI PUSH1 0x0 DUP1 REVERT JUMPDEST POP PUSH1 0x4 CALLDATASIZE LT PUSH2 0x41 JUMPI PUSH1 0x0 CALLDATALOAD PUSH1 0xE0 SHR DUP1 PUSH4 0x1AA3A008 EQ PUSH2 0x46 JUMPI DUP1 PUSH4 0x33DCFACC EQ PUSH2 0x50 JUMPI DUP1 PUSH4 0x64E7EAF5 EQ PUSH2 0x6C JUMPI JUMPDEST PUSH1 0x0 DUP1 REVERT JUMPDEST PUSH2 0x4E PUSH2 0x88 JUMP JUMPDEST STOP JUMPDEST PUSH2 0x6A PUSH1 0x4 DUP1 CALLDATASIZE SUB DUP2 ADD SWAP1 PUSH2 0x65 SWAP2 SWAP1 PUSH2 0x121B JUMP JUMPDEST PUSH2 0x201 JUMP JUMPDEST STOP JUMPDEST PUSH2 0x86 PUSH1 0x4 DUP1 CALLDATASIZE SUB DUP2 ADD SWAP1 PUSH2 0x81 SWAP2 SWAP1 PUSH2 0x1390 JUMP JUMPDEST PUSH2 0x523 JUMP JUMPDEST STOP JUMPDEST PUSH1 0x1 PUSH1 0x2 SWAP1 SLOAD SWAP1 PUSH2 0x100 EXP SWAP1 DIV PUSH2 0xFFFF AND PUSH2 0xFFFF AND PUSH1 0x2 DUP1 SLOAD SWAP1 POP LT PUSH2 0xE3 JUMPI PUSH1 0x40 MLOAD PUSH32 0x8C379A000000000000000000000000000000000000000000000000000000000 DUP2 MSTORE PUSH1 0x4 ADD PUSH2 0xDA SWAP1 PUSH2 0x1436 JUMP JUMPDEST PUSH1 0x40 MLOAD DUP1 SWAP2 SUB SWAP1 REVERT JUMPDEST PUSH1 0x2 PUSH1 0x1 DUP2 PUSH1 0x1 DUP2 SLOAD ADD DUP1 DUP3 SSTORE DUP1 SWAP2 POP POP SUB SWAP1 PUSH1 0x0 MSTORE PUSH1 0x20 PUSH1 0x0 KECCAK256 ADD PUSH1 0x0 SWAP1 SLOAD SWAP1 PUSH2 0x100 EXP SWAP1 POP POP CALLER PUSH1 0x2 PUSH1 0x1 PUSH1 0x2 DUP1 SLOAD SWAP1 POP PUSH2 0x120 SWAP2 SWAP1 PUSH2 0x1485 JUMP JUMPDEST DUP2 SLOAD DUP2 LT PUSH2 0x131 JUMPI PUSH2 0x130 PUSH2 0x14B9 JUMP JUMPDEST JUMPDEST SWAP1 PUSH1 0x0 MSTORE PUSH1 0x20 PUSH1 0x0 KECCAK256 ADD PUSH1 0x0 PUSH2 0x100 EXP DUP2 SLOAD DUP2 PUSH20 0xFFFFFFFFFFFFFFFFFFFFFFFFFFFFFFFFFFFFFFFF MUL NOT AND SWAP1 DUP4 PUSH20 0xFFFFFFFFFFFFFFFFFFFFFFFFFFFFFFFFFFFFFFFF AND MUL OR SWAP1 SSTORE POP PUSH1 0x1 PUSH1 0x2 SWAP1 SLOAD SWAP1 PUSH2 0x100 EXP SWAP1 DIV PUSH2 0xFFFF AND PUSH2 0xFFFF AND PUSH1 0x2 DUP1 SLOAD SWAP1 POP SUB PUSH2 0x1FF JUMPI PUSH32 0xFBAD8AE1F42D0C027EC6BD76C01E4DD0E0645980A8271E2D081B5D75ECF3F979 PUSH1 0x1 PUSH1 0x0 SWAP1 SLOAD SWAP1 PUSH2 0x100 EXP SWAP1 DIV PUSH2 0xFFFF AND PUSH1 0xA PUSH1 0x1 PUSH1 0x4 SWAP1 SLOAD SWAP1 PUSH2 0x100 EXP SWAP1 DIV PUSH2 0xFFFF AND PUSH2 0x1E8 SWAP2 SWAP1 PUSH2 0x14E8 JUMP JUMPDEST PUSH1 0x40 MLOAD PUSH2 0x1F6 SWAP3 SWAP2 SWAP1 PUSH2 0x1534 JUMP JUMPDEST PUSH1 0x40 MLOAD DUP1 SWAP2 SUB SWAP1 LOG1 JUMPDEST JUMP JUMPDEST PUSH1 0x6 PUSH1 0x7 PUSH1 0x0 SWAP1 SLOAD SWAP1 PUSH2 0x100 EXP SWAP1 DIV PUSH2 0xFFFF AND PUSH2 0xFFFF AND DUP2 SLOAD DUP2 LT PUSH2 0x229 JUMPI PUSH2 0x228 PUSH2 0x14B9 JUMP JUMPDEST JUMPDEST SWAP1 PUSH1 0x0 MSTORE PUSH1 0x20 PUSH1 0x0 KECCAK256 SWAP1 PUSH1 0x4 MUL ADD PUSH1 0x2 ADD PUSH1 0x1 DUP2 PUSH1 0x1 DUP2 SLOAD ADD DUP1 DUP3 SSTORE DUP1 SWAP2 POP POP SUB SWAP1 PUSH1 0x0 MSTORE PUSH1 0x20 PUSH1 0x0 KECCAK256 POP POP CALLER PUSH1 0x6 PUSH1 0x7 PUSH1 0x0 SWAP1 SLOAD SWAP1 PUSH2 0x100 EXP SWAP1 DIV PUSH2 0xFFFF AND PUSH2 0xFFFF AND DUP2 SLOAD DUP2 LT PUSH2 0x27E JUMPI PUSH2 0x27D PUSH2 0x14B9 JUMP JUMPDEST JUMPDEST SWAP1 PUSH1 0x0 MSTORE PUSH1 0x20 PUSH1 0x0 KECCAK256 SWAP1 PUSH1 0x4 MUL ADD PUSH1 0x1 ADD PUSH1 0x6 PUSH1 0x7 PUSH1 0x0 SWAP1 SLOAD SWAP1 PUSH2 0x100 EXP SWAP1 DIV PUSH2 0xFFFF AND PUSH2 0xFFFF AND DUP2 SLOAD DUP2 LT PUSH2 0x2B7 JUMPI PUSH2 0x2B6 PUSH2 0x14B9 JUMP JUMPDEST JUMPDEST SWAP1 PUSH1 0x0 MSTORE PUSH1 0x20 PUSH1 0x0 KECCAK256 SWAP1 PUSH1 0x4 MUL ADD PUSH1 0x0 ADD PUSH1 0x0 SWAP1 SLOAD SWAP1 PUSH2 0x100 EXP SWAP1 DIV PUSH2 0xFFFF AND PUSH2 0xFFFF AND DUP2 SLOAD DUP2 LT PUSH2 0x2EC JUMPI PUSH2 0x2EB PUSH2 0x14B9 JUMP JUMPDEST JUMPDEST SWAP1 PUSH1 0x0 MSTORE PUSH1 0x20 PUSH1 0x0 KECCAK256 ADD PUSH1 0x0 PUSH2 0x100 EXP DUP2 SLOAD DUP2 PUSH20 0xFFFFFFFFFFFFFFFFFFFFFFFFFFFFFFFFFFFFFFFF MUL NOT AND SWAP1 DUP4 PUSH20 0xFFFFFFFFFFFFFFFFFFFFFFFFFFFFFFFFFFFFFFFF AND MUL OR SWAP1 SSTORE POP DUP2 PUSH1 0x6 PUSH1 0x7 PUSH1 0x0 SWAP1 SLOAD SWAP1 PUSH2 0x100 EXP SWAP1 DIV PUSH2 0xFFFF AND PUSH2 0xFFFF AND DUP2 SLOAD DUP2 LT PUSH2 0x35D JUMPI PUSH2 0x35C PUSH2 0x14B9 JUMP JUMPDEST JUMPDEST SWAP1 PUSH1 0x0 MSTORE PUSH1 0x20 PUSH1 0x0 KECCAK256 SWAP1 PUSH1 0x4 MUL ADD PUSH1 0x2 ADD PUSH1 0x6 PUSH1 0x7 PUSH1 0x0 SWAP1 SLOAD SWAP1 PUSH2 0x100 EXP SWAP1 DIV PUSH2 0xFFFF AND PUSH2 0xFFFF AND DUP2 SLOAD DUP2 LT PUSH2 0x396 JUMPI PUSH2 0x395 PUSH2 0x14B9 JUMP JUMPDEST JUMPDEST SWAP1 PUSH1 0x0 MSTORE PUSH1 0x20 PUSH1 0x0 KECCAK256 SWAP1 PUSH1 0x4 MUL ADD PUSH1 0x0 ADD PUSH1 0x0 SWAP1 SLOAD SWAP1 PUSH2 0x100 EXP SWAP1 DIV PUSH2 0xFFFF AND PUSH2 0xFFFF AND DUP2 SLOAD DUP2 LT PUSH2 0x3CB JUMPI PUSH2 0x3CA PUSH2 0x14B9 JUMP JUMPDEST JUMPDEST SWAP1 PUSH1 0x0 MSTORE PUSH1 0x20 PUSH1 0x0 KECCAK256 ADD SWAP1 DUP2 PUSH2 0x3E1 SWAP2 SWAP1 PUSH2 0x1774 JUMP JUMPDEST POP PUSH1 0x6 PUSH1 0x7 PUSH1 0x0 SWAP1 SLOAD SWAP1 PUSH2 0x100 EXP SWAP1 DIV PUSH2 0xFFFF AND PUSH2 0xFFFF AND DUP2 SLOAD DUP2 LT PUSH2 0x40A JUMPI PUSH2 0x409 PUSH2 0x14B9 JUMP JUMPDEST JUMPDEST SWAP1 PUSH1 0x0 MSTORE PUSH1 0x20 PUSH1 0x0 KECCAK256 SWAP1 PUSH1 0x4 MUL ADD PUSH1 0x0 ADD PUSH1 0x0 DUP2 DUP2 SWAP1 SLOAD SWAP1 PUSH2 0x100 EXP SWAP1 DIV PUSH2 0xFFFF AND DUP1 SWAP3 SWAP2 SWAP1 PUSH2 0x439 SWAP1 PUSH2 0x1846 JUMP JUMPDEST SWAP2 SWAP1 PUSH2 0x100 EXP DUP2 SLOAD DUP2 PUSH2 0xFFFF MUL NOT AND SWAP1 DUP4 PUSH2 0xFFFF AND MUL OR SWAP1 SSTORE POP POP PUSH1 0x0 PUSH1 0x7 PUSH1 0x0 SWAP1 SLOAD SWAP1 PUSH2 0x100 EXP SWAP1 DIV PUSH2 0xFFFF AND PUSH2 0xFFFF AND EQ PUSH2 0x47A JUMPI PUSH2 0x479 DUP2 PUSH2 0x545 JUMP JUMPDEST JUMPDEST PUSH1 0x1 PUSH1 0x4 SWAP1 SLOAD SWAP1 PUSH2 0x100 EXP SWAP1 DIV PUSH2 0xFFFF AND PUSH2 0xFFFF AND PUSH1 0x6 PUSH1 0x7 PUSH1 0x0 SWAP1 SLOAD SWAP1 PUSH2 0x100 EXP SWAP1 DIV PUSH2 0xFFFF AND PUSH2 0xFFFF AND DUP2 SLOAD DUP2 LT PUSH2 0x4B7 JUMPI PUSH2 0x4B6 PUSH2 0x14B9 JUMP JUMPDEST JUMPDEST SWAP1 PUSH1 0x0 MSTORE PUSH1 0x20 PUSH1 0x0 KECCAK256 SWAP1 PUSH1 0x4 MUL ADD PUSH1 0x0 ADD PUSH1 0x0 SWAP1 SLOAD SWAP1 PUSH2 0x100 EXP SWAP1 DIV PUSH2 0xFFFF AND PUSH2 0xFFFF AND SUB PUSH2 0x51F JUMPI PUSH2 0x516 PUSH1 0x40 MLOAD DUP1 PUSH1 0x60 ADD PUSH1 0x40 MSTORE DUP1 PUSH1 0x2D DUP2 MSTORE PUSH1 0x20 ADD PUSH2 0x1DA6 PUSH1 0x2D SWAP2 CODECOPY PUSH1 0x7 PUSH1 0x0 SWAP1 SLOAD SWAP1 PUSH2 0x100 EXP SWAP1 DIV PUSH2 0xFFFF AND PUSH2 0xFFFF AND PUSH2 0x606 JUMP JUMPDEST PUSH2 0x51E PUSH2 0x6A2 JUMP JUMPDEST JUMPDEST POP POP JUMP JUMPDEST DUP1 PUSH1 0x0 SWAP1 DUP1 MLOAD SWAP1 PUSH1 0x20 ADD SWAP1 PUSH2 0x539 SWAP3 SWAP2 SWAP1 PUSH2 0xEF2 JUMP JUMPDEST POP PUSH2 0x542 PUSH2 0x715 JUMP JUMPDEST POP JUMP JUMPDEST PUSH1 0x0 JUMPDEST DUP2 MLOAD DUP2 PUSH2 0xFFFF AND LT ISZERO PUSH2 0x602 JUMPI DUP2 DUP2 PUSH2 0xFFFF AND DUP2 MLOAD DUP2 LT PUSH2 0x56C JUMPI PUSH2 0x56B PUSH2 0x14B9 JUMP JUMPDEST JUMPDEST PUSH1 0x20 MUL PUSH1 0x20 ADD ADD MLOAD PUSH1 0x6 PUSH1 0x1 PUSH1 0x7 PUSH1 0x0 SWAP1 SLOAD SWAP1 PUSH2 0x100 EXP SWAP1 DIV PUSH2 0xFFFF AND PUSH2 0x593 SWAP2 SWAP1 PUSH2 0x1870 JUMP JUMPDEST PUSH2 0xFFFF AND DUP2 SLOAD DUP2 LT PUSH2 0x5A8 JUMPI PUSH2 0x5A7 PUSH2 0x14B9 JUMP JUMPDEST JUMPDEST SWAP1 PUSH1 0x0 MSTORE PUSH1 0x20 PUSH1 0x0 KECCAK256 SWAP1 PUSH1 0x4 MUL ADD PUSH1 0x3 ADD DUP3 PUSH2 0xFFFF AND DUP2 SLOAD DUP2 LT PUSH2 0x5CF JUMPI PUSH2 0x5CE PUSH2 0x14B9 JUMP JUMPDEST JUMPDEST SWAP1 PUSH1 0x0 MSTORE PUSH1 0x20 PUSH1 0x0 KECCAK256 ADD PUSH1 0x0 DUP3 DUP3 SLOAD PUSH2 0x5E8 SWAP2 SWAP1 PUSH2 0x18A6 JUMP JUMPDEST SWAP3 POP POP DUP2 SWAP1 SSTORE POP DUP1 DUP1 PUSH2 0x5FA SWAP1 PUSH2 0x1846 JUMP JUMPDEST SWAP2 POP POP PUSH2 0x548 JUMP JUMPDEST POP POP JUMP JUMPDEST PUSH2 0x69E DUP3 DUP3 PUSH1 0x40 MLOAD PUSH1 0x24 ADD PUSH2 0x61C SWAP3 SWAP2 SWAP1 PUSH2 0x194C JUMP JUMPDEST PUSH1 0x40 MLOAD PUSH1 0x20 DUP2 DUP4 SUB SUB DUP2 MSTORE SWAP1 PUSH1 0x40 MSTORE PUSH32 0xB60E72CC00000000000000000000000000000000000000000000000000000000 PUSH28 0xFFFFFFFFFFFFFFFFFFFFFFFFFFFFFFFFFFFFFFFFFFFFFFFFFFFFFFFF NOT AND PUSH1 0x20 DUP3 ADD DUP1 MLOAD PUSH28 0xFFFFFFFFFFFFFFFFFFFFFFFFFFFFFFFFFFFFFFFFFFFFFFFFFFFFFFFF DUP4 DUP2 DUP4 AND OR DUP4 MSTORE POP POP POP POP PUSH2 0x8D5 JUMP JUMPDEST POP POP JUMP JUMPDEST PUSH1 0x1 PUSH1 0x0 SWAP1 SLOAD SWAP1 PUSH2 0x100 EXP SWAP1 DIV PUSH2 0xFFFF AND PUSH2 0xFFFF AND PUSH1 0x6 DUP1 SLOAD SWAP1 POP SUB PUSH2 0x6CF JUMPI PUSH2 0x6CA PUSH2 0x8EF JUMP JUMPDEST PUSH2 0x713 JUMP JUMPDEST PUSH1 0x7 PUSH1 0x0 DUP2 DUP2 SWAP1 SLOAD SWAP1 PUSH2 0x100 EXP SWAP1 DIV PUSH2 0xFFFF AND DUP1 SWAP3 SWAP2 SWAP1 PUSH2 0x6EF SWAP1 PUSH2 0x1846 JUMP JUMPDEST SWAP2 SWAP1 PUSH2 0x100 EXP DUP2 SLOAD DUP2 PUSH2 0xFFFF MUL NOT AND SWAP1 DUP4 PUSH2 0xFFFF AND MUL OR SWAP1 SSTORE POP POP PUSH2 0x712 PUSH2 0x715 JUMP JUMPDEST JUMPDEST JUMP JUMPDEST PUSH2 0x768 PUSH1 0x40 MLOAD DUP1 PUSH1 0x40 ADD PUSH1 0x40 MSTORE DUP1 PUSH1 0x18 DUP2 MSTORE PUSH1 0x20 ADD PUSH32 0x5374617274696E6720726F756E64206E756D6265722025730000000000000000 DUP2 MSTORE POP PUSH1 0x7 PUSH1 0x0 SWAP1 SLOAD SWAP1 PUSH2 0x100 EXP SWAP1 DIV PUSH2 0xFFFF AND PUSH2 0xFFFF AND PUSH2 0x606 JUMP JUMPDEST PUSH1 0x6 PUSH1 0x1 DUP2 PUSH1 0x1 DUP2 SLOAD ADD DUP1 DUP3 SSTORE DUP1 SWAP2 POP POP SUB SWAP1 PUSH1 0x0 MSTORE PUSH1 0x20 PUSH1 0x0 KECCAK256 SWAP1 POP POP PUSH2 0x7DA PUSH1 0x0 PUSH1 0x7 PUSH1 0x0 SWAP1 SLOAD SWAP1 PUSH2 0x100 EXP SWAP1 DIV PUSH2 0xFFFF AND PUSH2 0xFFFF AND DUP2 SLOAD DUP2 LT PUSH2 0x7B1 JUMPI PUSH2 0x7B0 PUSH2 0x14B9 JUMP JUMPDEST JUMPDEST SWAP1 PUSH1 0x0 MSTORE PUSH1 0x20 PUSH1 0x0 KECCAK256 SWAP1 PUSH1 0x10 SWAP2 DUP3 DUP3 DIV ADD SWAP2 SWAP1 MOD PUSH1 0x2 MUL SWAP1 SLOAD SWAP1 PUSH2 0x100 EXP SWAP1 DIV PUSH2 0xFFFF AND PUSH2 0x91D JUMP JUMPDEST PUSH1 0x0 PUSH1 0x7 PUSH1 0x0 SWAP1 SLOAD SWAP1 PUSH2 0x100 EXP SWAP1 DIV PUSH2 0xFFFF AND PUSH2 0xFFFF AND SUB PUSH2 0x845 JUMPI PUSH32 0x150FCFABE9F7A7813459239366CB280600535B5DDD553B1449E25C02EBB5B7BD PUSH1 0x5 PUSH1 0x7 PUSH1 0x0 SWAP1 SLOAD SWAP1 PUSH2 0x100 EXP SWAP1 DIV PUSH2 0xFFFF AND PUSH1 0x40 MLOAD PUSH2 0x838 SWAP3 SWAP2 SWAP1 PUSH2 0x1AD7 JUMP JUMPDEST PUSH1 0x40 MLOAD DUP1 SWAP2 SUB SWAP1 LOG1 PUSH2 0x8D3 JUMP JUMPDEST PUSH32 0x150FCFABE9F7A7813459239366CB280600535B5DDD553B1449E25C02EBB5B7BD PUSH1 0x6 PUSH1 0x1 PUSH1 0x7 PUSH1 0x0 SWAP1 SLOAD SWAP1 PUSH2 0x100 EXP SWAP1 DIV PUSH2 0xFFFF AND PUSH2 0x885 SWAP2 SWAP1 PUSH2 0x1870 JUMP JUMPDEST PUSH2 0xFFFF AND DUP2 SLOAD DUP2 LT PUSH2 0x89A JUMPI PUSH2 0x899 PUSH2 0x14B9 JUMP JUMPDEST JUMPDEST SWAP1 PUSH1 0x0 MSTORE PUSH1 0x20 PUSH1 0x0 KECCAK256 SWAP1 PUSH1 0x4 MUL ADD PUSH1 0x2 ADD PUSH1 0x7 PUSH1 0x0 SWAP1 SLOAD SWAP1 PUSH2 0x100 EXP SWAP1 DIV PUSH2 0xFFFF AND PUSH1 0x40 MLOAD PUSH2 0x8CA SWAP3 SWAP2 SWAP1 PUSH2 0x1AD7 JUMP JUMPDEST PUSH1 0x40 MLOAD DUP1 SWAP2 SUB SWAP1 LOG1 JUMPDEST JUMP JUMPDEST PUSH2 0x8EC DUP2 PUSH2 0x8E4 PUSH2 0xC9E PUSH2 0xCBF JUMP JUMPDEST PUSH4 0xFFFFFFFF AND JUMP JUMPDEST POP JUMP JUMPDEST PUSH32 0x513605BEBE244BBC21F30CA5C868C5728A1C1D7D5D7746302261C27E03A16451 PUSH1 0x40 MLOAD PUSH1 0x40 MLOAD DUP1 SWAP2 SUB SWAP1 LOG1 JUMP JUMPDEST PUSH2 0x95B PUSH1 0x40 MLOAD DUP1 PUSH1 0x40 ADD PUSH1 0x40 MSTORE DUP1 PUSH1 0x14 DUP2 MSTORE PUSH1 0x20 ADD PUSH32 0x53656C656374696E6720776F726B6572732E2E2E000000000000000000000000 DUP2 MSTORE POP PUSH2 0xCCA JUMP JUMPDEST PUSH1 0x0 JUMPDEST PUSH1 0x1 PUSH1 0x4 SWAP1 SLOAD SWAP1 PUSH2 0x100 EXP SWAP1 DIV PUSH2 0xFFFF AND PUSH2 0xFFFF AND DUP2 PUSH2 0xFFFF AND LT ISZERO PUSH2 0xC2B JUMPI PUSH1 0x6 PUSH1 0x7 PUSH1 0x0 SWAP1 SLOAD SWAP1 PUSH2 0x100 EXP SWAP1 DIV PUSH2 0xFFFF AND PUSH2 0xFFFF AND DUP2 SLOAD DUP2 LT PUSH2 0x9A6 JUMPI PUSH2 0x9A5 PUSH2 0x14B9 JUMP JUMPDEST JUMPDEST SWAP1 PUSH1 0x0 MSTORE PUSH1 0x20 PUSH1 0x0 KECCAK256 SWAP1 PUSH1 0x4 MUL ADD PUSH1 0x3 ADD PUSH1 0x1 DUP2 PUSH1 0x1 DUP2 SLOAD ADD DUP1 DUP3 SSTORE DUP1 SWAP2 POP POP SUB SWAP1 PUSH1 0x0 MSTORE PUSH1 0x20 PUSH1 0x0 KECCAK256 POP POP PUSH1 0x6 PUSH1 0x7 PUSH1 0x0 SWAP1 SLOAD SWAP1 PUSH2 0x100 EXP SWAP1 DIV PUSH2 0xFFFF AND PUSH2 0xFFFF AND DUP2 SLOAD DUP2 LT PUSH2 0x9FA JUMPI PUSH2 0x9F9 PUSH2 0x14B9 JUMP JUMPDEST JUMPDEST SWAP1 PUSH1 0x0 MSTORE PUSH1 0x20 PUSH1 0x0 KECCAK256 SWAP1 PUSH1 0x4 MUL ADD PUSH1 0x1 ADD PUSH1 0x1 DUP2 PUSH1 0x1 DUP2 SLOAD ADD DUP1 DUP3 SSTORE DUP1 SWAP2 POP POP SUB SWAP1 PUSH1 0x0 MSTORE PUSH1 0x20 PUSH1 0x0 KECCAK256 ADD PUSH1 0x0 SWAP1 SLOAD SWAP1 PUSH2 0x100 EXP SWAP1 POP POP PUSH1 0x0 DUP1 PUSH1 0x2 DUP1 DUP1 SLOAD SWAP1 POP DUP5 DUP7 PUSH2 0xA47 SWAP2 SWAP1 PUSH2 0x1B07 JUMP JUMPDEST PUSH2 0xFFFF AND PUSH2 0xA55 SWAP2 SWAP1 PUSH2 0x1B6C JUMP JUMPDEST DUP2 SLOAD DUP2 LT PUSH2 0xA66 JUMPI PUSH2 0xA65 PUSH2 0x14B9 JUMP JUMPDEST JUMPDEST SWAP1 PUSH1 0x0 MSTORE PUSH1 0x20 PUSH1 0x0 KECCAK256 ADD PUSH1 0x0 SWAP1 SLOAD SWAP1 PUSH2 0x100 EXP SWAP1 DIV PUSH20 0xFFFFFFFFFFFFFFFFFFFFFFFFFFFFFFFFFFFFFFFF AND SWAP1 POP JUMPDEST PUSH2 0xAA8 DUP2 PUSH1 0x3 PUSH2 0xD63 SWAP1 SWAP2 SWAP1 PUSH4 0xFFFFFFFF AND JUMP JUMPDEST ISZERO PUSH2 0xB2A JUMPI DUP2 DUP1 PUSH2 0xAB8 SWAP1 PUSH2 0x1846 JUMP JUMPDEST SWAP3 POP POP PUSH1 0x2 DUP1 DUP1 SLOAD SWAP1 POP DUP4 DUP6 DUP8 PUSH2 0xACF SWAP2 SWAP1 PUSH2 0x1B07 JUMP JUMPDEST PUSH2 0xAD9 SWAP2 SWAP1 PUSH2 0x1B07 JUMP JUMPDEST PUSH2 0xFFFF AND PUSH2 0xAE7 SWAP2 SWAP1 PUSH2 0x1B6C JUMP JUMPDEST DUP2 SLOAD DUP2 LT PUSH2 0xAF8 JUMPI PUSH2 0xAF7 PUSH2 0x14B9 JUMP JUMPDEST JUMPDEST SWAP1 PUSH1 0x0 MSTORE PUSH1 0x20 PUSH1 0x0 KECCAK256 ADD PUSH1 0x0 SWAP1 SLOAD SWAP1 PUSH2 0x100 EXP SWAP1 DIV PUSH20 0xFFFFFFFFFFFFFFFFFFFFFFFFFFFFFFFFFFFFFFFF AND SWAP1 POP PUSH2 0xA94 JUMP JUMPDEST DUP1 PUSH1 0x6 PUSH1 0x7 PUSH1 0x0 SWAP1 SLOAD SWAP1 PUSH2 0x100 EXP SWAP1 DIV PUSH2 0xFFFF AND PUSH2 0xFFFF AND DUP2 SLOAD DUP2 LT PUSH2 0xB53 JUMPI PUSH2 0xB52 PUSH2 0x14B9 JUMP JUMPDEST JUMPDEST SWAP1 PUSH1 0x0 MSTORE PUSH1 0x20 PUSH1 0x0 KECCAK256 SWAP1 PUSH1 0x4 MUL ADD PUSH1 0x1 ADD DUP5 PUSH2 0xFFFF AND DUP2 SLOAD DUP2 LT PUSH2 0xB7A JUMPI PUSH2 0xB79 PUSH2 0x14B9 JUMP JUMPDEST JUMPDEST SWAP1 PUSH1 0x0 MSTORE PUSH1 0x20 PUSH1 0x0 KECCAK256 ADD PUSH1 0x0 PUSH2 0x100 EXP DUP2 SLOAD DUP2 PUSH20 0xFFFFFFFFFFFFFFFFFFFFFFFFFFFFFFFFFFFFFFFF MUL NOT AND SWAP1 DUP4 PUSH20 0xFFFFFFFFFFFFFFFFFFFFFFFFFFFFFFFFFFFFFFFF AND MUL OR SWAP1 SSTORE POP PUSH2 0xBD6 DUP2 PUSH1 0x3 PUSH2 0xD93 SWAP1 SWAP2 SWAP1 PUSH4 0xFFFFFFFF AND JUMP JUMPDEST POP PUSH2 0xC16 PUSH1 0x40 MLOAD DUP1 PUSH1 0x40 ADD PUSH1 0x40 MSTORE DUP1 PUSH1 0x1E DUP2 MSTORE PUSH1 0x20 ADD PUSH32 0x53656C656374656420776F726B657220617420616464726573733A2025730000 DUP2 MSTORE POP DUP3 PUSH2 0xDC3 JUMP JUMPDEST POP POP DUP1 DUP1 PUSH2 0xC23 SWAP1 PUSH2 0x1846 JUMP JUMPDEST SWAP2 POP POP PUSH2 0x95E JUMP JUMPDEST POP PUSH32 0xFBE4E23ACF42B10F8CF80B88D97A71E590EF8D1E3DC8FCB5640718897BBD209C PUSH1 0x6 PUSH1 0x7 PUSH1 0x0 SWAP1 SLOAD SWAP1 PUSH2 0x100 EXP SWAP1 DIV PUSH2 0xFFFF AND PUSH2 0xFFFF AND DUP2 SLOAD DUP2 LT PUSH2 0xC75 JUMPI PUSH2 0xC74 PUSH2 0x14B9 JUMP JUMPDEST JUMPDEST SWAP1 PUSH1 0x0 MSTORE PUSH1 0x20 PUSH1 0x0 KECCAK256 SWAP1 PUSH1 0x4 MUL ADD PUSH1 0x1 ADD PUSH1 0x40 MLOAD PUSH2 0xC93 SWAP2 SWAP1 PUSH2 0x1CF3 JUMP JUMPDEST PUSH1 0x40 MLOAD DUP1 SWAP2 SUB SWAP1 LOG1 POP JUMP JUMPDEST PUSH1 0x0 PUSH11 0x636F6E736F6C652E6C6F67 SWAP1 POP PUSH1 0x0 DUP1 DUP4 MLOAD PUSH1 0x20 DUP6 ADD DUP5 GAS STATICCALL POP POP POP JUMP JUMPDEST PUSH2 0xF9C DUP2 SWAP1 POP SWAP2 SWAP1 POP JUMP JUMPDEST PUSH2 0xD60 DUP2 PUSH1 0x40 MLOAD PUSH1 0x24 ADD PUSH2 0xCDE SWAP2 SWAP1 PUSH2 0x1D15 JUMP JUMPDEST PUSH1 0x40 MLOAD PUSH1 0x20 DUP2 DUP4 SUB SUB DUP2 MSTORE SWAP1 PUSH1 0x40 MSTORE PUSH32 0x41304FAC00000000000000000000000000000000000000000000000000000000 PUSH28 0xFFFFFFFFFFFFFFFFFFFFFFFFFFFFFFFFFFFFFFFFFFFFFFFFFFFFFFFF NOT AND PUSH1 0x20 DUP3 ADD DUP1 MLOAD PUSH28 0xFFFFFFFFFFFFFFFFFFFFFFFFFFFFFFFFFFFFFFFFFFFFFFFFFFFFFFFF DUP4 DUP2 DUP4 AND OR DUP4 MSTORE POP POP POP POP PUSH2 0x8D5 JUMP JUMPDEST POP JUMP JUMPDEST PUSH1 0x0 PUSH2 0xD8B DUP4 PUSH1 0x0 ADD DUP4 PUSH20 0xFFFFFFFFFFFFFFFFFFFFFFFFFFFFFFFFFFFFFFFF AND PUSH1 0x0 SHL PUSH2 0xE5F JUMP JUMPDEST SWAP1 POP SWAP3 SWAP2 POP POP JUMP JUMPDEST PUSH1 0x0 PUSH2 0xDBB DUP4 PUSH1 0x0 ADD DUP4 PUSH20 0xFFFFFFFFFFFFFFFFFFFFFFFFFFFFFFFFFFFFFFFF AND PUSH1 0x0 SHL PUSH2 0xE82 JUMP JUMPDEST SWAP1 POP SWAP3 SWAP2 POP POP JUMP JUMPDEST PUSH2 0xE5B DUP3 DUP3 PUSH1 0x40 MLOAD PUSH1 0x24 ADD PUSH2 0xDD9 SWAP3 SWAP2 SWAP1 PUSH2 0x1D46 JUMP JUMPDEST PUSH1 0x40 MLOAD PUSH1 0x20 DUP2 DUP4 SUB SUB DUP2 MSTORE SWAP1 PUSH1 0x40 MSTORE PUSH32 0x319AF33300000000000000000000000000000000000000000000000000000000 PUSH28 0xFFFFFFFFFFFFFFFFFFFFFFFFFFFFFFFFFFFFFFFFFFFFFFFFFFFFFFFF NOT AND PUSH1 0x20 DUP3 ADD DUP1 MLOAD PUSH28 0xFFFFFFFFFFFFFFFFFFFFFFFFFFFFFFFFFFFFFFFFFFFFFFFFFFFFFFFF DUP4 DUP2 DUP4 AND OR DUP4 MSTORE POP POP POP POP PUSH2 0x8D5 JUMP JUMPDEST POP POP JUMP JUMPDEST PUSH1 0x0 DUP1 DUP4 PUSH1 0x1 ADD PUSH1 0x0 DUP5 DUP2 MSTORE PUSH1 0x20 ADD SWAP1 DUP2 MSTORE PUSH1 0x20 ADD PUSH1 0x0 KECCAK256 SLOAD EQ ISZERO SWAP1 POP SWAP3 SWAP2 POP POP JUMP JUMPDEST PUSH1 0x0 PUSH2 0xE8E DUP4 DUP4 PUSH2 0xE5F JUMP JUMPDEST PUSH2 0xEE7 JUMPI DUP3 PUSH1 0x0 ADD DUP3 SWAP1 DUP1 PUSH1 0x1 DUP2 SLOAD ADD DUP1 DUP3 SSTORE DUP1 SWAP2 POP POP PUSH1 0x1 SWAP1 SUB SWAP1 PUSH1 0x0 MSTORE PUSH1 0x20 PUSH1 0x0 KECCAK256 ADD PUSH1 0x0 SWAP1 SWAP2 SWAP1 SWAP2 SWAP1 SWAP2 POP SSTORE DUP3 PUSH1 0x0 ADD DUP1 SLOAD SWAP1 POP DUP4 PUSH1 0x1 ADD PUSH1 0x0 DUP5 DUP2 MSTORE PUSH1 0x20 ADD SWAP1 DUP2 MSTORE PUSH1 0x20 ADD PUSH1 0x0 KECCAK256 DUP2 SWAP1 SSTORE POP PUSH1 0x1 SWAP1 POP PUSH2 0xEEC JUMP JUMPDEST PUSH1 0x0 SWAP1 POP JUMPDEST SWAP3 SWAP2 POP POP JUMP JUMPDEST DUP3 DUP1 SLOAD DUP3 DUP3 SSTORE SWAP1 PUSH1 0x0 MSTORE PUSH1 0x20 PUSH1 0x0 KECCAK256 SWAP1 PUSH1 0xF ADD PUSH1 0x10 SWAP1 DIV DUP2 ADD SWAP3 DUP3 ISZERO PUSH2 0xF8B JUMPI SWAP2 PUSH1 0x20 MUL DUP3 ADD PUSH1 0x0 JUMPDEST DUP4 DUP3 GT ISZERO PUSH2 0xF5B JUMPI DUP4 MLOAD DUP4 DUP3 PUSH2 0x100 EXP DUP2 SLOAD DUP2 PUSH2 0xFFFF MUL NOT AND SWAP1 DUP4 PUSH2 0xFFFF AND MUL OR SWAP1 SSTORE POP SWAP3 PUSH1 0x20 ADD SWAP3 PUSH1 0x2 ADD PUSH1 0x20 DUP2 PUSH1 0x1 ADD DIV SWAP3 DUP4 ADD SWAP3 PUSH1 0x1 SUB MUL PUSH2 0xF1B JUMP JUMPDEST DUP1 ISZERO PUSH2 0xF89 JUMPI DUP3 DUP2 PUSH2 0x100 EXP DUP2 SLOAD SWAP1 PUSH2 0xFFFF MUL NOT AND SWAP1 SSTORE PUSH1 0x2 ADD PUSH1 0x20 DUP2 PUSH1 0x1 ADD DIV SWAP3 DUP4 ADD SWAP3 PUSH1 0x1 SUB MUL PUSH2 0xF5B JUMP JUMPDEST POP JUMPDEST POP SWAP1 POP PUSH2 0xF98 SWAP2 SWAP1 PUSH2 0xFA6 JUMP JUMPDEST POP SWAP1 JUMP JUMPDEST PUSH2 0xFA4 PUSH2 0x1D76 JUMP JUMPDEST JUMP JUMPDEST JUMPDEST DUP1 DUP3 GT ISZERO PUSH2 0xFBF JUMPI PUSH1 0x0 DUP2 PUSH1 0x0 SWAP1 SSTORE POP PUSH1 0x1 ADD PUSH2 0xFA7 JUMP JUMPDEST POP SWAP1 JUMP JUMPDEST PUSH1 0x0 PUSH1 0x40 MLOAD SWAP1 POP SWAP1 JUMP JUMPDEST PUSH1 0x0 DUP1 REVERT JUMPDEST PUSH1 0x0 DUP1 REVERT JUMPDEST PUSH1 0x0 DUP1 REVERT JUMPDEST PUSH1 0x0 DUP1 REVERT JUMPDEST PUSH1 0x0 PUSH1 0x1F NOT PUSH1 0x1F DUP4 ADD AND SWAP1 POP SWAP2 SWAP1 POP JUMP JUMPDEST PUSH32 0x4E487B7100000000000000000000000000000000000000000000000000000000 PUSH1 0x0 MSTORE PUSH1 0x41 PUSH1 0x4 MSTORE PUSH1 0x24 PUSH1 0x0 REVERT JUMPDEST PUSH2 0x102A DUP3 PUSH2 0xFE1 JUMP JUMPDEST DUP2 ADD DUP2 DUP2 LT PUSH8 0xFFFFFFFFFFFFFFFF DUP3 GT OR ISZERO PUSH2 0x1049 JUMPI PUSH2 0x1048 PUSH2 0xFF2 JUMP JUMPDEST JUMPDEST DUP1 PUSH1 0x40 MSTORE POP POP POP JUMP JUMPDEST PUSH1 0x0 PUSH2 0x105C PUSH2 0xFC3 JUMP JUMPDEST SWAP1 POP PUSH2 0x1068 DUP3 DUP3 PUSH2 0x1021 JUMP JUMPDEST SWAP2 SWAP1 POP JUMP JUMPDEST PUSH1 0x0 PUSH8 0xFFFFFFFFFFFFFFFF DUP3 GT ISZERO PUSH2 0x1088 JUMPI PUSH2 0x1087 PUSH2 0xFF2 JUMP JUMPDEST JUMPDEST PUSH2 0x1091 DUP3 PUSH2 0xFE1 JUMP JUMPDEST SWAP1 POP PUSH1 0x20 DUP2 ADD SWAP1 POP SWAP2 SWAP1 POP JUMP JUMPDEST DUP3 DUP2 DUP4 CALLDATACOPY PUSH1 0x0 DUP4 DUP4 ADD MSTORE POP POP POP JUMP JUMPDEST PUSH1 0x0 PUSH2 0x10C0 PUSH2 0x10BB DUP5 PUSH2 0x106D JUMP JUMPDEST PUSH2 0x1052 JUMP JUMPDEST SWAP1 POP DUP3 DUP2 MSTORE PUSH1 0x20 DUP2 ADD DUP5 DUP5 DUP5 ADD GT ISZERO PUSH2 0x10DC JUMPI PUSH2 0x10DB PUSH2 0xFDC JUMP JUMPDEST JUMPDEST PUSH2 0x10E7 DUP5 DUP3 DUP6 PUSH2 0x109E JUMP JUMPDEST POP SWAP4 SWAP3 POP POP POP JUMP JUMPDEST PUSH1 0x0 DUP3 PUSH1 0x1F DUP4 ADD SLT PUSH2 0x1104 JUMPI PUSH2 0x1103 PUSH2 0xFD7 JUMP JUMPDEST JUMPDEST DUP2 CALLDATALOAD PUSH2 0x1114 DUP5 DUP3 PUSH1 0x20 DUP7 ADD PUSH2 0x10AD JUMP JUMPDEST SWAP2 POP POP SWAP3 SWAP2 POP POP JUMP JUMPDEST PUSH1 0x0 PUSH8 0xFFFFFFFFFFFFFFFF DUP3 GT ISZERO PUSH2 0x1138 JUMPI PUSH2 0x1137 PUSH2 0xFF2 JUMP JUMPDEST JUMPDEST PUSH1 0x20 DUP3 MUL SWAP1 POP PUSH1 0x20 DUP2 ADD SWAP1 POP SWAP2 SWAP1 POP JUMP JUMPDEST PUSH1 0x0 DUP1 REVERT JUMPDEST PUSH1 0x0 DUP2 SWAP1 POP SWAP2 SWAP1 POP JUMP JUMPDEST PUSH2 0x1161 DUP2 PUSH2 0x114E JUMP JUMPDEST DUP2 EQ PUSH2 0x116C JUMPI PUSH1 0x0 DUP1 REVERT JUMPDEST POP JUMP JUMPDEST PUSH1 0x0 DUP2 CALLDATALOAD SWAP1 POP PUSH2 0x117E DUP2 PUSH2 0x1158 JUMP JUMPDEST SWAP3 SWAP2 POP POP JUMP JUMPDEST PUSH1 0x0 PUSH2 0x1197 PUSH2 0x1192 DUP5 PUSH2 0x111D JUMP JUMPDEST PUSH2 0x1052 JUMP JUMPDEST SWAP1 POP DUP1 DUP4 DUP3 MSTORE PUSH1 0x20 DUP3 ADD SWAP1 POP PUSH1 0x20 DUP5 MUL DUP4 ADD DUP6 DUP2 GT ISZERO PUSH2 0x11BA JUMPI PUSH2 0x11B9 PUSH2 0x1149 JUMP JUMPDEST JUMPDEST DUP4 JUMPDEST DUP2 DUP2 LT ISZERO PUSH2 0x11E3 JUMPI DUP1 PUSH2 0x11CF DUP9 DUP3 PUSH2 0x116F JUMP JUMPDEST DUP5 MSTORE PUSH1 0x20 DUP5 ADD SWAP4 POP POP PUSH1 0x20 DUP2 ADD SWAP1 POP PUSH2 0x11BC JUMP JUMPDEST POP POP POP SWAP4 SWAP3 POP POP POP JUMP JUMPDEST PUSH1 0x0 DUP3 PUSH1 0x1F DUP4 ADD SLT PUSH2 0x1202 JUMPI PUSH2 0x1201 PUSH2 0xFD7 JUMP JUMPDEST JUMPDEST DUP2 CALLDATALOAD PUSH2 0x1212 DUP5 DUP3 PUSH1 0x20 DUP7 ADD PUSH2 0x1184 JUMP JUMPDEST SWAP2 POP POP SWAP3 SWAP2 POP POP JUMP JUMPDEST PUSH1 0x0 DUP1 PUSH1 0x40 DUP4 DUP6 SUB SLT ISZERO PUSH2 0x1232 JUMPI PUSH2 0x1231 PUSH2 0xFCD JUMP JUMPDEST JUMPDEST PUSH1 0x0 DUP4 ADD CALLDATALOAD PUSH8 0xFFFFFFFFFFFFFFFF DUP2 GT ISZERO PUSH2 0x1250 JUMPI PUSH2 0x124F PUSH2 0xFD2 JUMP JUMPDEST JUMPDEST PUSH2 0x125C DUP6 DUP3 DUP7 ADD PUSH2 0x10EF JUMP JUMPDEST SWAP3 POP POP PUSH1 0x20 DUP4 ADD CALLDATALOAD PUSH8 0xFFFFFFFFFFFFFFFF DUP2 GT ISZERO PUSH2 0x127D JUMPI PUSH2 0x127C PUSH2 0xFD2 JUMP JUMPDEST JUMPDEST PUSH2 0x1289 DUP6 DUP3 DUP7 ADD PUSH2 0x11ED JUMP JUMPDEST SWAP2 POP POP SWAP3 POP SWAP3 SWAP1 POP JUMP JUMPDEST PUSH1 0x0 PUSH8 0xFFFFFFFFFFFFFFFF DUP3 GT ISZERO PUSH2 0x12AE JUMPI PUSH2 0x12AD PUSH2 0xFF2 JUMP JUMPDEST JUMPDEST PUSH1 0x20 DUP3 MUL SWAP1 POP PUSH1 0x20 DUP2 ADD SWAP1 POP SWAP2 SWAP1 POP JUMP JUMPDEST PUSH1 0x0 PUSH2 0xFFFF DUP3 AND SWAP1 POP SWAP2 SWAP1 POP JUMP JUMPDEST PUSH2 0x12D6 DUP2 PUSH2 0x12BF JUMP JUMPDEST DUP2 EQ PUSH2 0x12E1 JUMPI PUSH1 0x0 DUP1 REVERT JUMPDEST POP JUMP JUMPDEST PUSH1 0x0 DUP2 CALLDATALOAD SWAP1 POP PUSH2 0x12F3 DUP2 PUSH2 0x12CD JUMP JUMPDEST SWAP3 SWAP2 POP POP JUMP JUMPDEST PUSH1 0x0 PUSH2 0x130C PUSH2 0x1307 DUP5 PUSH2 0x1293 JUMP JUMPDEST PUSH2 0x1052 JUMP JUMPDEST SWAP1 POP DUP1 DUP4 DUP3 MSTORE PUSH1 0x20 DUP3 ADD SWAP1 POP PUSH1 0x20 DUP5 MUL DUP4 ADD DUP6 DUP2 GT ISZERO PUSH2 0x132F JUMPI PUSH2 0x132E PUSH2 0x1149 JUMP JUMPDEST JUMPDEST DUP4 JUMPDEST DUP2 DUP2 LT ISZERO PUSH2 0x1358 JUMPI DUP1 PUSH2 0x1344 DUP9 DUP3 PUSH2 0x12E4 JUMP JUMPDEST DUP5 MSTORE PUSH1 0x20 DUP5 ADD SWAP4 POP POP PUSH1 0x20 DUP2 ADD SWAP1 POP PUSH2 0x1331 JUMP JUMPDEST POP POP POP SWAP4 SWAP3 POP POP POP JUMP JUMPDEST PUSH1 0x0 DUP3 PUSH1 0x1F DUP4 ADD SLT PUSH2 0x1377 JUMPI PUSH2 0x1376 PUSH2 0xFD7 JUMP JUMPDEST JUMPDEST DUP2 CALLDATALOAD PUSH2 0x1387 DUP5 DUP3 PUSH1 0x20 DUP7 ADD PUSH2 0x12F9 JUMP JUMPDEST SWAP2 POP POP SWAP3 SWAP2 POP POP JUMP JUMPDEST PUSH1 0x0 PUSH1 0x20 DUP3 DUP5 SUB SLT ISZERO PUSH2 0x13A6 JUMPI PUSH2 0x13A5 PUSH2 0xFCD JUMP JUMPDEST JUMPDEST PUSH1 0x0 DUP3 ADD CALLDATALOAD PUSH8 0xFFFFFFFFFFFFFFFF DUP2 GT ISZERO PUSH2 0x13C4 JUMPI PUSH2 0x13C3 PUSH2 0xFD2 JUMP JUMPDEST JUMPDEST PUSH2 0x13D0 DUP5 DUP3 DUP6 ADD PUSH2 0x1362 JUMP JUMPDEST SWAP2 POP POP SWAP3 SWAP2 POP POP JUMP JUMPDEST PUSH1 0x0 DUP3 DUP3 MSTORE PUSH1 0x20 DUP3 ADD SWAP1 POP SWAP3 SWAP2 POP POP JUMP JUMPDEST PUSH32 0x496D706F737369626C6520746F20726567697374657221000000000000000000 PUSH1 0x0 DUP3 ADD MSTORE POP JUMP JUMPDEST PUSH1 0x0 PUSH2 0x1420 PUSH1 0x17 DUP4 PUSH2 0x13D9 JUMP JUMPDEST SWAP2 POP PUSH2 0x142B DUP3 PUSH2 0x13EA JUMP JUMPDEST PUSH1 0x20 DUP3 ADD SWAP1 POP SWAP2 SWAP1 POP JUMP JUMPDEST PUSH1 0x0 PUSH1 0x20 DUP3 ADD SWAP1 POP DUP2 DUP2 SUB PUSH1 0x0 DUP4 ADD MSTORE PUSH2 0x144F DUP2 PUSH2 0x1413 JUMP JUMPDEST SWAP1 POP SWAP2 SWAP1 POP JUMP JUMPDEST PUSH32 0x4E487B7100000000000000000000000000000000000000000000000000000000 PUSH1 0x0 MSTORE PUSH1 0x11 PUSH1 0x4 MSTORE PUSH1 0x24 PUSH1 0x0 REVERT JUMPDEST PUSH1 0x0 PUSH2 0x1490 DUP3 PUSH2 0x114E JUMP JUMPDEST SWAP2 POP PUSH2 0x149B DUP4 PUSH2 0x114E JUMP JUMPDEST SWAP3 POP DUP3 DUP3 SUB SWAP1 POP DUP2 DUP2 GT ISZERO PUSH2 0x14B3 JUMPI PUSH2 0x14B2 PUSH2 0x1456 JUMP JUMPDEST JUMPDEST SWAP3 SWAP2 POP POP JUMP JUMPDEST PUSH32 0x4E487B7100000000000000000000000000000000000000000000000000000000 PUSH1 0x0 MSTORE PUSH1 0x32 PUSH1 0x4 MSTORE PUSH1 0x24 PUSH1 0x0 REVERT JUMPDEST PUSH1 0x0 PUSH2 0x14F3 DUP3 PUSH2 0x12BF JUMP JUMPDEST SWAP2 POP PUSH2 0x14FE DUP4 PUSH2 0x12BF JUMP JUMPDEST SWAP3 POP DUP3 DUP3 MUL PUSH2 0x150C DUP2 PUSH2 0x12BF JUMP JUMPDEST SWAP2 POP DUP1 DUP3 EQ PUSH2 0x151E JUMPI PUSH2 0x151D PUSH2 0x1456 JUMP JUMPDEST JUMPDEST POP SWAP3 SWAP2 POP POP JUMP JUMPDEST PUSH2 0x152E DUP2 PUSH2 0x12BF JUMP JUMPDEST DUP3 MSTORE POP POP JUMP JUMPDEST PUSH1 0x0 PUSH1 0x40 DUP3 ADD SWAP1 POP PUSH2 0x1549 PUSH1 0x0 DUP4 ADD DUP6 PUSH2 0x1525 JUMP JUMPDEST PUSH2 0x1556 PUSH1 0x20 DUP4 ADD DUP5 PUSH2 0x1525 JUMP JUMPDEST SWAP4 SWAP3 POP POP POP JUMP JUMPDEST PUSH1 0x0 DUP2 MLOAD SWAP1 POP SWAP2 SWAP1 POP JUMP JUMPDEST PUSH32 0x4E487B7100000000000000000000000000000000000000000000000000000000 PUSH1 0x0 MSTORE PUSH1 0x22 PUSH1 0x4 MSTORE PUSH1 0x24 PUSH1 0x0 REVERT JUMPDEST PUSH1 0x0 PUSH1 0x2 DUP3 DIV SWAP1 POP PUSH1 0x1 DUP3 AND DUP1 PUSH2 0x15AF JUMPI PUSH1 0x7F DUP3 AND SWAP2 POP JUMPDEST PUSH1 0x20 DUP3 LT DUP2 SUB PUSH2 0x15C2 JUMPI PUSH2 0x15C1 PUSH2 0x1568 JUMP JUMPDEST JUMPDEST POP SWAP2 SWAP1 POP JUMP JUMPDEST PUSH1 0x0 DUP2 SWAP1 POP DUP2 PUSH1 0x0 MSTORE PUSH1 0x20 PUSH1 0x0 KECCAK256 SWAP1 POP SWAP2 SWAP1 POP JUMP JUMPDEST PUSH1 0x0 PUSH1 0x20 PUSH1 0x1F DUP4 ADD DIV SWAP1 POP SWAP2 SWAP1 POP JUMP JUMPDEST PUSH1 0x0 DUP3 DUP3 SHL SWAP1 POP SWAP3 SWAP2 POP POP JUMP JUMPDEST PUSH1 0x0 PUSH1 0x8 DUP4 MUL PUSH2 0x162A PUSH32 0xFFFFFFFFFFFFFFFFFFFFFFFFFFFFFFFFFFFFFFFFFFFFFFFFFFFFFFFFFFFFFFFF DUP3 PUSH2 0x15ED JUMP JUMPDEST PUSH2 0x1634 DUP7 DUP4 PUSH2 0x15ED JUMP JUMPDEST SWAP6 POP DUP1 NOT DUP5 AND SWAP4 POP DUP1 DUP7 AND DUP5 OR SWAP3 POP POP POP SWAP4 SWAP3 POP POP POP JUMP JUMPDEST PUSH1 0x0 DUP2 SWAP1 POP SWAP2 SWAP1 POP JUMP JUMPDEST PUSH1 0x0 PUSH2 0x1671 PUSH2 0x166C PUSH2 0x1667 DUP5 PUSH2 0x114E JUMP JUMPDEST PUSH2 0x164C JUMP JUMPDEST PUSH2 0x114E JUMP JUMPDEST SWAP1 POP SWAP2 SWAP1 POP JUMP JUMPDEST PUSH1 0x0 DUP2 SWAP1 POP SWAP2 SWAP1 POP JUMP JUMPDEST PUSH2 0x168B DUP4 PUSH2 0x1656 JUMP JUMPDEST PUSH2 0x169F PUSH2 0x1697 DUP3 PUSH2 0x1678 JUMP JUMPDEST DUP5 DUP5 SLOAD PUSH2 0x15FA JUMP JUMPDEST DUP3 SSTORE POP POP POP POP JUMP JUMPDEST PUSH1 0x0 SWAP1 JUMP JUMPDEST PUSH2 0x16B4 PUSH2 0x16A7 JUMP JUMPDEST PUSH2 0x16BF DUP2 DUP5 DUP5 PUSH2 0x1682 JUMP JUMPDEST POP POP POP JUMP JUMPDEST JUMPDEST DUP2 DUP2 LT ISZERO PUSH2 0x16E3 JUMPI PUSH2 0x16D8 PUSH1 0x0 DUP3 PUSH2 0x16AC JUMP JUMPDEST PUSH1 0x1 DUP2 ADD SWAP1 POP PUSH2 0x16C5 JUMP JUMPDEST POP POP JUMP JUMPDEST PUSH1 0x1F DUP3 GT ISZERO PUSH2 0x1728 JUMPI PUSH2 0x16F9 DUP2 PUSH2 0x15C8 JUMP JUMPDEST PUSH2 0x1702 DUP5 PUSH2 0x15DD JUMP JUMPDEST DUP2 ADD PUSH1 0x20 DUP6 LT ISZERO PUSH2 0x1711 JUMPI DUP2 SWAP1 POP JUMPDEST PUSH2 0x1725 PUSH2 0x171D DUP6 PUSH2 0x15DD JUMP JUMPDEST DUP4 ADD DUP3 PUSH2 0x16C4 JUMP JUMPDEST POP POP JUMPDEST POP POP POP JUMP JUMPDEST PUSH1 0x0 DUP3 DUP3 SHR SWAP1 POP SWAP3 SWAP2 POP POP JUMP JUMPDEST PUSH1 0x0 PUSH2 0x174B PUSH1 0x0 NOT DUP5 PUSH1 0x8 MUL PUSH2 0x172D JUMP JUMPDEST NOT DUP1 DUP4 AND SWAP2 POP POP SWAP3 SWAP2 POP POP JUMP JUMPDEST PUSH1 0x0 PUSH2 0x1764 DUP4 DUP4 PUSH2 0x173A JUMP JUMPDEST SWAP2 POP DUP3 PUSH1 0x2 MUL DUP3 OR SWAP1 POP SWAP3 SWAP2 POP POP JUMP JUMPDEST PUSH2 0x177D DUP3 PUSH2 0x155D JUMP JUMPDEST PUSH8 0xFFFFFFFFFFFFFFFF DUP2 GT ISZERO PUSH2 0x1796 JUMPI PUSH2 0x1795 PUSH2 0xFF2 JUMP JUMPDEST JUMPDEST PUSH2 0x17A0 DUP3 SLOAD PUSH2 0x1597 JUMP JUMPDEST PUSH2 0x17AB DUP3 DUP3 DUP6 PUSH2 0x16E7 JUMP JUMPDEST PUSH1 0x0 PUSH1 0x20 SWAP1 POP PUSH1 0x1F DUP4 GT PUSH1 0x1 DUP2 EQ PUSH2 0x17DE JUMPI PUSH1 0x0 DUP5 ISZERO PUSH2 0x17CC JUMPI DUP3 DUP8 ADD MLOAD SWAP1 POP JUMPDEST PUSH2 0x17D6 DUP6 DUP3 PUSH2 0x1758 JUMP JUMPDEST DUP7 SSTORE POP PUSH2 0x183E JUMP JUMPDEST PUSH1 0x1F NOT DUP5 AND PUSH2 0x17EC DUP7 PUSH2 0x15C8 JUMP JUMPDEST PUSH1 0x0 JUMPDEST DUP3 DUP2 LT ISZERO PUSH2 0x1814 JUMPI DUP5 DUP10 ADD MLOAD DUP3 SSTORE PUSH1 0x1 DUP3 ADD SWAP2 POP PUSH1 0x20 DUP6 ADD SWAP5 POP PUSH1 0x20 DUP2 ADD SWAP1 POP PUSH2 0x17EF JUMP JUMPDEST DUP7 DUP4 LT ISZERO PUSH2 0x1831 JUMPI DUP5 DUP10 ADD MLOAD PUSH2 0x182D PUSH1 0x1F DUP10 AND DUP3 PUSH2 0x173A JUMP JUMPDEST DUP4 SSTORE POP JUMPDEST PUSH1 0x1 PUSH1 0x2 DUP9 MUL ADD DUP9 SSTORE POP POP POP JUMPDEST POP POP POP POP POP POP JUMP JUMPDEST PUSH1 0x0 PUSH2 0x1851 DUP3 PUSH2 0x12BF JUMP JUMPDEST SWAP2 POP PUSH2 0xFFFF DUP3 SUB PUSH2 0x1865 JUMPI PUSH2 0x1864 PUSH2 0x1456 JUMP JUMPDEST JUMPDEST PUSH1 0x1 DUP3 ADD SWAP1 POP SWAP2 SWAP1 POP JUMP JUMPDEST PUSH1 0x0 PUSH2 0x187B DUP3 PUSH2 0x12BF JUMP JUMPDEST SWAP2 POP PUSH2 0x1886 DUP4 PUSH2 0x12BF JUMP JUMPDEST SWAP3 POP DUP3 DUP3 SUB SWAP1 POP PUSH2 0xFFFF DUP2 GT ISZERO PUSH2 0x18A0 JUMPI PUSH2 0x189F PUSH2 0x1456 JUMP JUMPDEST JUMPDEST SWAP3 SWAP2 POP POP JUMP JUMPDEST PUSH1 0x0 PUSH2 0x18B1 DUP3 PUSH2 0x114E JUMP JUMPDEST SWAP2 POP PUSH2 0x18BC DUP4 PUSH2 0x114E JUMP JUMPDEST SWAP3 POP DUP3 DUP3 ADD SWAP1 POP DUP1 DUP3 GT ISZERO PUSH2 0x18D4 JUMPI PUSH2 0x18D3 PUSH2 0x1456 JUMP JUMPDEST JUMPDEST SWAP3 SWAP2 POP POP JUMP JUMPDEST PUSH1 0x0 JUMPDEST DUP4 DUP2 LT ISZERO PUSH2 0x18F8 JUMPI DUP1 DUP3 ADD MLOAD DUP2 DUP5 ADD MSTORE PUSH1 0x20 DUP2 ADD SWAP1 POP PUSH2 0x18DD JUMP JUMPDEST PUSH1 0x0 DUP5 DUP5 ADD MSTORE POP POP POP POP JUMP JUMPDEST PUSH1 0x0 PUSH2 0x190F DUP3 PUSH2 0x155D JUMP JUMPDEST PUSH2 0x1919 DUP2 DUP6 PUSH2 0x13D9 JUMP JUMPDEST SWAP4 POP PUSH2 0x1929 DUP2 DUP6 PUSH1 0x20 DUP7 ADD PUSH2 0x18DA JUMP JUMPDEST PUSH2 0x1932 DUP2 PUSH2 0xFE1 JUMP JUMPDEST DUP5 ADD SWAP2 POP POP SWAP3 SWAP2 POP POP JUMP JUMPDEST PUSH2 0x1946 DUP2 PUSH2 0x114E JUMP JUMPDEST DUP3 MSTORE POP POP JUMP JUMPDEST PUSH1 0x0 PUSH1 0x40 DUP3 ADD SWAP1 POP DUP2 DUP2 SUB PUSH1 0x0 DUP4 ADD MSTORE PUSH2 0x1966 DUP2 DUP6 PUSH2 0x1904 JUMP JUMPDEST SWAP1 POP PUSH2 0x1975 PUSH1 0x20 DUP4 ADD DUP5 PUSH2 0x193D JUMP JUMPDEST SWAP4 SWAP3 POP POP POP JUMP JUMPDEST PUSH1 0x0 DUP2 SLOAD SWAP1 POP SWAP2 SWAP1 POP JUMP JUMPDEST PUSH1 0x0 DUP3 DUP3 MSTORE PUSH1 0x20 DUP3 ADD SWAP1 POP SWAP3 SWAP2 POP POP JUMP JUMPDEST PUSH1 0x0 DUP2 SWAP1 POP DUP2 PUSH1 0x0 MSTORE PUSH1 0x20 PUSH1 0x0 KECCAK256 SWAP1 POP SWAP2 SWAP1 POP JUMP JUMPDEST PUSH1 0x0 DUP3 DUP3 MSTORE PUSH1 0x20 DUP3 ADD SWAP1 POP SWAP3 SWAP2 POP POP JUMP JUMPDEST PUSH1 0x0 DUP2 SLOAD PUSH2 0x19CB DUP2 PUSH2 0x1597 JUMP JUMPDEST PUSH2 0x19D5 DUP2 DUP7 PUSH2 0x19AD JUMP JUMPDEST SWAP5 POP PUSH1 0x1 DUP3 AND PUSH1 0x0 DUP2 EQ PUSH2 0x19F0 JUMPI PUSH1 0x1 DUP2 EQ PUSH2 0x1A06 JUMPI PUSH2 0x1A39 JUMP JUMPDEST PUSH1 0xFF NOT DUP4 AND DUP7 MSTORE DUP2 ISZERO ISZERO PUSH1 0x20 MUL DUP7 ADD SWAP4 POP PUSH2 0x1A39 JUMP JUMPDEST PUSH2 0x1A0F DUP6 PUSH2 0x15C8 JUMP JUMPDEST PUSH1 0x0 JUMPDEST DUP4 DUP2 LT ISZERO PUSH2 0x1A31 JUMPI DUP2 SLOAD DUP2 DUP10 ADD MSTORE PUSH1 0x1 DUP3 ADD SWAP2 POP PUSH1 0x20 DUP2 ADD SWAP1 POP PUSH2 0x1A12 JUMP JUMPDEST DUP1 DUP9 ADD SWAP6 POP POP POP JUMPDEST POP POP POP SWAP3 SWAP2 POP POP JUMP JUMPDEST PUSH1 0x0 PUSH2 0x1A4E DUP4 DUP4 PUSH2 0x19BE JUMP JUMPDEST SWAP1 POP SWAP3 SWAP2 POP POP JUMP JUMPDEST PUSH1 0x0 PUSH1 0x1 DUP3 ADD SWAP1 POP SWAP2 SWAP1 POP JUMP JUMPDEST PUSH1 0x0 PUSH2 0x1A6E DUP3 PUSH2 0x197C JUMP JUMPDEST PUSH2 0x1A78 DUP2 DUP6 PUSH2 0x1987 JUMP JUMPDEST SWAP4 POP DUP4 PUSH1 0x20 DUP3 MUL DUP6 ADD PUSH2 0x1A8A DUP6 PUSH2 0x1998 JUMP JUMPDEST DUP1 PUSH1 0x0 JUMPDEST DUP6 DUP2 LT ISZERO PUSH2 0x1AC5 JUMPI DUP5 DUP5 SUB DUP10 MSTORE DUP2 PUSH2 0x1AA6 DUP6 DUP3 PUSH2 0x1A42 JUMP JUMPDEST SWAP5 POP PUSH2 0x1AB1 DUP4 PUSH2 0x1A56 JUMP JUMPDEST SWAP3 POP PUSH1 0x20 DUP11 ADD SWAP10 POP POP PUSH1 0x1 DUP2 ADD SWAP1 POP PUSH2 0x1A8E JUMP JUMPDEST POP DUP3 SWAP8 POP DUP8 SWAP6 POP POP POP POP POP POP SWAP3 SWAP2 POP POP JUMP JUMPDEST PUSH1 0x0 PUSH1 0x40 DUP3 ADD SWAP1 POP DUP2 DUP2 SUB PUSH1 0x0 DUP4 ADD MSTORE PUSH2 0x1AF1 DUP2 DUP6 PUSH2 0x1A63 JUMP JUMPDEST SWAP1 POP PUSH2 0x1B00 PUSH1 0x20 DUP4 ADD DUP5 PUSH2 0x1525 JUMP JUMPDEST SWAP4 SWAP3 POP POP POP JUMP JUMPDEST PUSH1 0x0 PUSH2 0x1B12 DUP3 PUSH2 0x12BF JUMP JUMPDEST SWAP2 POP PUSH2 0x1B1D DUP4 PUSH2 0x12BF JUMP JUMPDEST SWAP3 POP DUP3 DUP3 ADD SWAP1 POP PUSH2 0xFFFF DUP2 GT ISZERO PUSH2 0x1B37 JUMPI PUSH2 0x1B36 PUSH2 0x1456 JUMP JUMPDEST JUMPDEST SWAP3 SWAP2 POP POP JUMP JUMPDEST PUSH32 0x4E487B7100000000000000000000000000000000000000000000000000000000 PUSH1 0x0 MSTORE PUSH1 0x12 PUSH1 0x4 MSTORE PUSH1 0x24 PUSH1 0x0 REVERT JUMPDEST PUSH1 0x0 PUSH2 0x1B77 DUP3 PUSH2 0x114E JUMP JUMPDEST SWAP2 POP PUSH2 0x1B82 DUP4 PUSH2 0x114E JUMP JUMPDEST SWAP3 POP DUP3 PUSH2 0x1B92 JUMPI PUSH2 0x1B91 PUSH2 0x1B3D JUMP JUMPDEST JUMPDEST DUP3 DUP3 MOD SWAP1 POP SWAP3 SWAP2 POP POP JUMP JUMPDEST PUSH1 0x0 DUP2 SLOAD SWAP1 POP SWAP2 SWAP1 POP JUMP JUMPDEST PUSH1 0x0 DUP3 DUP3 MSTORE PUSH1 0x20 DUP3 ADD SWAP1 POP SWAP3 SWAP2 POP POP JUMP JUMPDEST PUSH1 0x0 DUP2 SWAP1 POP DUP2 PUSH1 0x0 MSTORE PUSH1 0x20 PUSH1 0x0 KECCAK256 SWAP1 POP SWAP2 SWAP1 POP JUMP JUMPDEST PUSH1 0x0 PUSH20 0xFFFFFFFFFFFFFFFFFFFFFFFFFFFFFFFFFFFFFFFF DUP3 AND SWAP1 POP SWAP2 SWAP1 POP JUMP JUMPDEST PUSH1 0x0 PUSH2 0x1BF9 DUP3 PUSH2 0x1BCE JUMP JUMPDEST SWAP1 POP SWAP2 SWAP1 POP JUMP JUMPDEST PUSH2 0x1C09 DUP2 PUSH2 0x1BEE JUMP JUMPDEST DUP3 MSTORE POP POP JUMP JUMPDEST PUSH1 0x0 PUSH2 0x1C1B DUP4 DUP4 PUSH2 0x1C00 JUMP JUMPDEST PUSH1 0x20 DUP4 ADD SWAP1 POP SWAP3 SWAP2 POP POP JUMP JUMPDEST PUSH1 0x0 DUP2 PUSH1 0x0 SHR SWAP1 POP SWAP2 SWAP1 POP JUMP JUMPDEST PUSH1 0x0 PUSH20 0xFFFFFFFFFFFFFFFFFFFFFFFFFFFFFFFFFFFFFFFF DUP3 AND SWAP1 POP SWAP2 SWAP1 POP JUMP JUMPDEST PUSH1 0x0 PUSH2 0x1C67 PUSH2 0x1C62 DUP4 PUSH2 0x1C27 JUMP JUMPDEST PUSH2 0x1C34 JUMP JUMPDEST SWAP1 POP SWAP2 SWAP1 POP JUMP JUMPDEST PUSH1 0x0 PUSH2 0x1C7A DUP3 SLOAD PUSH2 0x1C54 JUMP JUMPDEST SWAP1 POP SWAP2 SWAP1 POP JUMP JUMPDEST PUSH1 0x0 PUSH1 0x1 DUP3 ADD SWAP1 POP SWAP2 SWAP1 POP JUMP JUMPDEST PUSH1 0x0 PUSH2 0x1C99 DUP3 PUSH2 0x1B9D JUMP JUMPDEST PUSH2 0x1CA3 DUP2 DUP6 PUSH2 0x1BA8 JUMP JUMPDEST SWAP4 POP PUSH2 0x1CAE DUP4 PUSH2 0x1BB9 JUMP JUMPDEST DUP1 PUSH1 0x0 JUMPDEST DUP4 DUP2 LT ISZERO PUSH2 0x1CE6 JUMPI PUSH2 0x1CC3 DUP3 PUSH2 0x1C6E JUMP JUMPDEST PUSH2 0x1CCD DUP9 DUP3 PUSH2 0x1C0F JUMP JUMPDEST SWAP8 POP PUSH2 0x1CD8 DUP4 PUSH2 0x1C81 JUMP JUMPDEST SWAP3 POP POP PUSH1 0x1 DUP2 ADD SWAP1 POP PUSH2 0x1CB2 JUMP JUMPDEST POP DUP6 SWAP4 POP POP POP POP SWAP3 SWAP2 POP POP JUMP JUMPDEST PUSH1 0x0 PUSH1 0x20 DUP3 ADD SWAP1 POP DUP2 DUP2 SUB PUSH1 0x0 DUP4 ADD MSTORE PUSH2 0x1D0D DUP2 DUP5 PUSH2 0x1C8E JUMP JUMPDEST SWAP1 POP SWAP3 SWAP2 POP POP JUMP JUMPDEST PUSH1 0x0 PUSH1 0x20 DUP3 ADD SWAP1 POP DUP2 DUP2 SUB PUSH1 0x0 DUP4 ADD MSTORE PUSH2 0x1D2F DUP2 DUP5 PUSH2 0x1904 JUMP JUMPDEST SWAP1 POP SWAP3 SWAP2 POP POP JUMP JUMPDEST PUSH2 0x1D40 DUP2 PUSH2 0x1BEE JUMP JUMPDEST DUP3 MSTORE POP POP JUMP JUMPDEST PUSH1 0x0 PUSH1 0x40 DUP3 ADD SWAP1 POP DUP2 DUP2 SUB PUSH1 0x0 DUP4 ADD MSTORE PUSH2 0x1D60 DUP2 DUP6 PUSH2 0x1904 JUMP JUMPDEST SWAP1 POP PUSH2 0x1D6F PUSH1 0x20 DUP4 ADD DUP5 PUSH2 0x1D37 JUMP JUMPDEST SWAP4 SWAP3 POP POP POP JUMP JUMPDEST PUSH32 0x4E487B7100000000000000000000000000000000000000000000000000000000 PUSH1 0x0 MSTORE PUSH1 0x51 PUSH1 0x4 MSTORE PUSH1 0x24 PUSH1 0x0 REVERT INVALID COINBASE PUSH13 0x6C20776F726B65727320737562 PUSH14 0x697474656420746865697220776F PUSH19 0x6B20666F7220726F756E64202573A264697066 PUSH20 0x5822122049688F16A49565D6F78880EDE2E4D1FB 0xFB 0xE2 SWAP5 0xEF 0xD NUMBER 0xC0 PUSH14 0x3019E521C4CF084464736F6C6343 STOP ADDMOD EQ STOP CALLER "},"methodIdentifiers":{"commitWork(string,uint256[])":"33dcfacc","register()":"1aa3a008","setRandomness(uint16[])":"64e7eaf5"}}}}}