{
  "_format": "hh-sol-artifact-1",
  "contractName": "EventsApp",
  "sourceName": "contracts/EventsApp.sol",
  "abi": [
    {
      "inputs": [
        {
          "internalType": "uint16",
          "name": "_numberOfRounds",
          "type": "uint16"
        },
        {
          "internalType": "uint16",
          "name": "_workersRequired",
          "type": "uint16"
        }
      ],
      "stateMutability": "nonpayable",
      "type": "constructor"
    },
    {
      "anonymous": false,
      "inputs": [
        {
          "indexed": false,
          "internalType": "uint16",
          "name": "numberOfSeeds",
          "type": "uint16"
        },
        {
          "indexed": false,
          "internalType": "uint16",
          "name": "upperBound",
          "type": "uint16"
        }
      ],
      "name": "NeedRandomness",
      "type": "event"
    },
    {
      "anonymous": false,
      "inputs": [
        {
          "indexed": false,
          "internalType": "string[]",
          "name": "previousWork",
          "type": "string[]"
        },
        {
          "indexed": false,
          "internalType": "uint16",
          "name": "roundNumber",
          "type": "uint16"
        }
      ],
      "name": "RoundStarted",
      "type": "event"
    },
    {
      "anonymous": false,
      "inputs": [
        {
          "indexed": false,
          "internalType": "address[]",
          "name": "workers",
          "type": "address[]"
        },
        {
          "indexed": false,
          "internalType": "uint16",
          "name": "roundNumber",
          "type": "uint16"
        }
      ],
      "name": "Selected",
      "type": "event"
    },
    {
      "anonymous": false,
      "inputs": [],
      "name": "TaskEnded",
      "type": "event"
    },
    {
      "inputs": [
        {
          "internalType": "string",
          "name": "work",
          "type": "string"
        },
        {
          "internalType": "uint256[]",
          "name": "votes",
          "type": "uint256[]"
        }
      ],
      "name": "commitWork",
      "outputs": [],
      "stateMutability": "nonpayable",
      "type": "function"
    },
    {
      "inputs": [],
      "name": "getNumberOfRounds",
      "outputs": [
        {
          "internalType": "uint16",
          "name": "",
          "type": "uint16"
        }
      ],
      "stateMutability": "view",
      "type": "function"
    },
    {
      "inputs": [],
      "name": "getRanking",
      "outputs": [
        {
          "internalType": "uint256[][]",
          "name": "",
          "type": "uint256[][]"
        }
      ],
      "stateMutability": "view",
      "type": "function"
    },
    {
      "inputs": [],
      "name": "getRequiredWorkers",
      "outputs": [
        {
          "internalType": "uint16",
          "name": "",
          "type": "uint16"
        }
      ],
      "stateMutability": "view",
      "type": "function"
    },
    {
      "inputs": [],
      "name": "getWork",
      "outputs": [
        {
          "internalType": "string[][]",
          "name": "",
          "type": "string[][]"
        }
      ],
      "stateMutability": "view",
      "type": "function"
    },
    {
      "inputs": [],
      "name": "getWorkers",
      "outputs": [
        {
          "internalType": "address[][]",
          "name": "",
          "type": "address[][]"
        }
      ],
      "stateMutability": "view",
      "type": "function"
    },
    {
      "inputs": [],
      "name": "register",
      "outputs": [],
      "stateMutability": "nonpayable",
      "type": "function"
    },
    {
      "inputs": [
        {
          "internalType": "uint16[]",
          "name": "_seeds",
          "type": "uint16[]"
        }
      ],
      "name": "setRandomness",
      "outputs": [],
      "stateMutability": "nonpayable",
      "type": "function"
    }
  ],
  "bytecode": "0x60806040523480156200001157600080fd5b50604051620033da380380620033da8339818101604052810190620000379190620001a3565b81600160006101000a81548161ffff021916908361ffff16021790555080600160026101000a81548161ffff021916908361ffff160217905550600160009054906101000a900461ffff16600160029054906101000a900461ffff166200009f919062000248565b600160046101000a81548161ffff021916908361ffff1602179055506000600760006101000a81548161ffff021916908361ffff16021790555060005b600160049054906101000a900461ffff1661ffff168161ffff16101562000156576005806001815401808255809150506001900390600052602060002001600060405180602001604052806000815250909190915090816200013f9190620004fa565b5080806200014d90620005e1565b915050620000dc565b50505062000610565b600080fd5b600061ffff82169050919050565b6200017d8162000164565b81146200018957600080fd5b50565b6000815190506200019d8162000172565b92915050565b60008060408385031215620001bd57620001bc6200015f565b5b6000620001cd858286016200018c565b9250506020620001e0858286016200018c565b9150509250929050565b7f4e487b7100000000000000000000000000000000000000000000000000000000600052601260045260246000fd5b7f4e487b7100000000000000000000000000000000000000000000000000000000600052601160045260246000fd5b6000620002558262000164565b9150620002628362000164565b925082620002755762000274620001ea565b5b828204905092915050565b600081519050919050565b7f4e487b7100000000000000000000000000000000000000000000000000000000600052604160045260246000fd5b7f4e487b7100000000000000000000000000000000000000000000000000000000600052602260045260246000fd5b600060028204905060018216806200030257607f821691505b602082108103620003185762000317620002ba565b5b50919050565b60008190508160005260206000209050919050565b60006020601f8301049050919050565b600082821b905092915050565b600060088302620003827fffffffffffffffffffffffffffffffffffffffffffffffffffffffffffffffff8262000343565b6200038e868362000343565b95508019841693508086168417925050509392505050565b6000819050919050565b6000819050919050565b6000620003db620003d5620003cf84620003a6565b620003b0565b620003a6565b9050919050565b6000819050919050565b620003f783620003ba565b6200040f6200040682620003e2565b84845462000350565b825550505050565b600090565b6200042662000417565b62000433818484620003ec565b505050565b5b818110156200045b576200044f6000826200041c565b60018101905062000439565b5050565b601f821115620004aa5762000474816200031e565b6200047f8462000333565b810160208510156200048f578190505b620004a76200049e8562000333565b83018262000438565b50505b505050565b600082821c905092915050565b6000620004cf60001984600802620004af565b1980831691505092915050565b6000620004ea8383620004bc565b9150826002028217905092915050565b620005058262000280565b67ffffffffffffffff8111156200052157620005206200028b565b5b6200052d8254620002e9565b6200053a8282856200045f565b600060209050601f8311600181146200057257600084156200055d578287015190505b620005698582620004dc565b865550620005d9565b601f19841662000582866200031e565b60005b82811015620005ac5784890151825560018201915060208501945060208101905062000585565b86831015620005cc5784890151620005c8601f891682620004bc565b8355505b6001600288020188555050505b505050505050565b6000620005ee8262000164565b915061ffff820362000605576200060462000219565b5b600182019050919050565b612dba80620006206000396000f3fe608060405234801561001057600080fd5b50600436106100885760003560e01c806364e7eaf51161005b57806364e7eaf5146100ef5780638810d71a1461010b578063bb163f5114610129578063c1499f711461014757610088565b80631398bbf71461008d5780631aa3a008146100ab5780631c26d5cb146100b557806333dcfacc146100d3575b600080fd5b610095610165565b6040516100a29190611b4d565b60405180910390f35b6100b361039d565b005b6100bd610516565b6040516100ca9190611d83565b60405180910390f35b6100ed60048036038101906100e89190611fe2565b6106d7565b005b61010960048036038101906101049190612157565b610b61565b005b610113610b83565b60405161012091906121af565b60405180910390f35b610131610b9b565b60405161013e91906121af565b60405180910390f35b61014f610bb3565b60405161015c919061237c565b60405180910390f35b60606000600160009054906101000a900461ffff1661ffff1667ffffffffffffffff81111561019757610196611dc3565b5b6040519080825280602002602001820160405280156101ca57816020015b60608152602001906001900390816101b55790505b50905060005b600160009054906101000a900461ffff1661ffff168161ffff1610156103955760068161ffff16815481106102085761020761239e565b5b906000526020600020906004020160030180548060200260200160405190810160405280929190818152602001828054801561026357602002820191906000526020600020905b81548152602001906001019080831161024f575b5050505050828261ffff168151811061027f5761027e61239e565b5b60200260200101819052506102cd6040518060400160405280601b81526020017f526f756e64206e756d6265723a2025732c2072616e6b696e673a0a00000000008152508261ffff16610d29565b60005b828261ffff16815181106102e7576102e661239e565b5b6020026020010151518110156103815761036e6040518060400160405280600281526020017f2573000000000000000000000000000000000000000000000000000000000000815250848461ffff16815181106103475761034661239e565b5b602002602001015183815181106103615761036061239e565b5b6020026020010151610d29565b8080610379906123fc565b9150506102d0565b50808061038d90612444565b9150506101d0565b508091505090565b600160029054906101000a900461ffff1661ffff16600280549050106103f8576040517f08c379a00000000000000000000000000000000000000000000000000000000081526004016103ef906124cb565b60405180910390fd5b6002600181600181540180825580915050039060005260206000200160009054906101000a905050336002600160028054905061043591906124eb565b815481106104465761044561239e565b5b9060005260206000200160006101000a81548173ffffffffffffffffffffffffffffffffffffffff021916908373ffffffffffffffffffffffffffffffffffffffff160217905550600160029054906101000a900461ffff1661ffff1660028054905003610514577ffbad8ae1f42d0c027ec6bd76c01e4dd0e0645980a8271e2d081b5d75ecf3f979600160009054906101000a900461ffff16600a600160049054906101000a900461ffff166104fd919061251f565b60405161050b92919061255c565b60405180910390a15b565b60606000600160009054906101000a900461ffff1661ffff1667ffffffffffffffff81111561054857610547611dc3565b5b60405190808252806020026020018201604052801561057b57816020015b60608152602001906001900390816105665790505b50905060005b600160009054906101000a900461ffff1661ffff168161ffff1610156106cf5760068161ffff16815481106105b9576105b861239e565b5b9060005260206000209060040201600201805480602002602001604051908101604052809291908181526020016000905b82821015610696578382906000526020600020018054610609906125b4565b80601f0160208091040260200160405190810160405280929190818152602001828054610635906125b4565b80156106825780601f1061065757610100808354040283529160200191610682565b820191906000526020600020905b81548152906001019060200180831161066557829003601f168201915b5050505050815260200190600101906105ea565b50505050828261ffff16815181106106b1576106b061239e565b5b602002602001018190525080806106c790612444565b915050610581565b508091505090565b6006600760009054906101000a900461ffff1661ffff16815481106106ff576106fe61239e565b5b9060005260206000209060040201600201600181600181540180825580915050039060005260206000205050336006600760009054906101000a900461ffff1661ffff16815481106107545761075361239e565b5b90600052602060002090600402016001016006600760009054906101000a900461ffff1661ffff168154811061078d5761078c61239e565b5b906000526020600020906004020160000160009054906101000a900461ffff1661ffff16815481106107c2576107c161239e565b5b9060005260206000200160006101000a81548173ffffffffffffffffffffffffffffffffffffffff021916908373ffffffffffffffffffffffffffffffffffffffff160217905550816006600760009054906101000a900461ffff1661ffff16815481106108335761083261239e565b5b90600052602060002090600402016002016006600760009054906101000a900461ffff1661ffff168154811061086c5761086b61239e565b5b906000526020600020906004020160000160009054906101000a900461ffff1661ffff16815481106108a1576108a061239e565b5b9060005260206000200190816108b79190612791565b50610a206040518060400160405280601681526020017f576f726b6572202573207375626d697474656420257300000000000000000000815250336006600760009054906101000a900461ffff1661ffff168154811061091a5761091961239e565b5b90600052602060002090600402016002016006600760009054906101000a900461ffff1661ffff16815481106109535761095261239e565b5b906000526020600020906004020160000160009054906101000a900461ffff1661ffff16815481106109885761098761239e565b5b90600052602060002001805461099d906125b4565b80601f01602080910402602001604051908101604052809291908181526020018280546109c9906125b4565b8015610a165780601f106109eb57610100808354040283529160200191610a16565b820191906000526020600020905b8154815290600101906020018083116109f957829003601f168201915b5050505050610dc5565b6006600760009054906101000a900461ffff1661ffff1681548110610a4857610a4761239e565b5b9060005260206000209060040201600001600081819054906101000a900461ffff1680929190610a7790612444565b91906101000a81548161ffff021916908361ffff160217905550506000600760009054906101000a900461ffff1661ffff1614610ab857610ab781610e64565b5b600160049054906101000a900461ffff1661ffff166006600760009054906101000a900461ffff1661ffff1681548110610af557610af461239e565b5b906000526020600020906004020160000160009054906101000a900461ffff1661ffff1603610b5d57610b546040518060600160405280602d8152602001612d58602d9139600760009054906101000a900461ffff1661ffff16610d29565b610b5c610f25565b5b5050565b8060009080519060200190610b779291906118f2565b50610b80610f98565b50565b6000600160029054906101000a900461ffff16905090565b6000600160009054906101000a900461ffff16905090565b60606000600160009054906101000a900461ffff1661ffff1667ffffffffffffffff811115610be557610be4611dc3565b5b604051908082528060200260200182016040528015610c1857816020015b6060815260200190600190039081610c035790505b50905060005b600160009054906101000a900461ffff1661ffff168161ffff161015610d215760068161ffff1681548110610c5657610c5561239e565b5b9060005260206000209060040201600101805480602002602001604051908101604052809291908181526020018280548015610ce757602002820191906000526020600020905b8160009054906101000a900473ffffffffffffffffffffffffffffffffffffffff1673ffffffffffffffffffffffffffffffffffffffff1681526020019060010190808311610c9d575b5050505050828261ffff1681518110610d0357610d0261239e565b5b60200260200101819052508080610d1990612444565b915050610c1e565b508091505090565b610dc18282604051602401610d3f9291906128ab565b6040516020818303038152906040527fb60e72cc000000000000000000000000000000000000000000000000000000007bffffffffffffffffffffffffffffffffffffffffffffffffffffffff19166020820180517bffffffffffffffffffffffffffffffffffffffffffffffffffffffff83818316178352505050506112c3565b5050565b610e5f838383604051602401610ddd939291906128ea565b6040516020818303038152906040527fe0e9ad4f000000000000000000000000000000000000000000000000000000007bffffffffffffffffffffffffffffffffffffffffffffffffffffffff19166020820180517bffffffffffffffffffffffffffffffffffffffffffffffffffffffff83818316178352505050506112c3565b505050565b60005b81518161ffff161015610f2157818161ffff1681518110610e8b57610e8a61239e565b5b602002602001015160066001600760009054906101000a900461ffff16610eb2919061292f565b61ffff1681548110610ec757610ec661239e565b5b90600052602060002090600402016003018261ffff1681548110610eee57610eed61239e565b5b906000526020600020016000828254610f079190612965565b925050819055508080610f1990612444565b915050610e67565b5050565b600160009054906101000a900461ffff1661ffff1660068054905003610f5257610f4d6112dd565b610f96565b6007600081819054906101000a900461ffff1680929190610f7290612444565b91906101000a81548161ffff021916908361ffff16021790555050610f95610f98565b5b565b610feb6040518060400160405280601881526020017f5374617274696e6720726f756e64206e756d6265722025730000000000000000815250600760009054906101000a900461ffff1661ffff16610d29565b60066001816001815401808255809150500390600052602060002090505061105d6000600760009054906101000a900461ffff1661ffff16815481106110345761103361239e565b5b90600052602060002090601091828204019190066002029054906101000a900461ffff1661130b565b6000600760009054906101000a900461ffff1661ffff16036110c8577f150fcfabe9f7a7813459239366cb280600535b5ddd553b1449e25c02ebb5b7bd6005600760009054906101000a900461ffff166040516110bb929190612ae3565b60405180910390a16112c1565b6111066040518060400160405280601581526020017f53656e64696e672070726576696f757320776f726b000000000000000000000081525061169e565b60005b600160049054906101000a900461ffff1661ffff168161ffff1610156112325761121f60066001600760009054906101000a900461ffff1661114b919061292f565b61ffff16815481106111605761115f61239e565b5b90600052602060002090600402016002018261ffff16815481106111875761118661239e565b5b90600052602060002001805461119c906125b4565b80601f01602080910402602001604051908101604052809291908181526020018280546111c8906125b4565b80156112155780601f106111ea57610100808354040283529160200191611215565b820191906000526020600020905b8154815290600101906020018083116111f857829003601f168201915b505050505061169e565b808061122a90612444565b915050611109565b507f150fcfabe9f7a7813459239366cb280600535b5ddd553b1449e25c02ebb5b7bd60066001600760009054906101000a900461ffff16611273919061292f565b61ffff16815481106112885761128761239e565b5b9060005260206000209060040201600201600760009054906101000a900461ffff166040516112b8929190612ae3565b60405180910390a15b565b6112da816112d2611737611758565b63ffffffff16565b50565b7f513605bebe244bbc21f30ca5c868c5728a1c1d7d5d7746302261c27e03a1645160405160405180910390a1565b6113496040518060400160405280601481526020017f53656c656374696e6720776f726b6572732e2e2e00000000000000000000000081525061169e565b60005b600160049054906101000a900461ffff1661ffff168161ffff161015611619576006600760009054906101000a900461ffff1661ffff16815481106113945761139361239e565b5b90600052602060002090600402016003016001816001815401808255809150500390600052602060002050506006600760009054906101000a900461ffff1661ffff16815481106113e8576113e761239e565b5b9060005260206000209060040201600101600181600181540180825580915050039060005260206000200160009054906101000a9050506000806002808054905084866114359190612b13565b61ffff166114439190612b78565b815481106114545761145361239e565b5b9060005260206000200160009054906101000a900473ffffffffffffffffffffffffffffffffffffffff1690505b61149681600361176390919063ffffffff16565b156115185781806114a690612444565b925050600280805490508385876114bd9190612b13565b6114c79190612b13565b61ffff166114d59190612b78565b815481106114e6576114e561239e565b5b9060005260206000200160009054906101000a900473ffffffffffffffffffffffffffffffffffffffff169050611482565b806006600760009054906101000a900461ffff1661ffff16815481106115415761154061239e565b5b90600052602060002090600402016001018461ffff16815481106115685761156761239e565b5b9060005260206000200160006101000a81548173ffffffffffffffffffffffffffffffffffffffff021916908373ffffffffffffffffffffffffffffffffffffffff1602179055506115c481600361179390919063ffffffff16565b506116046040518060400160405280601e81526020017f53656c656374656420776f726b657220617420616464726573733a2025730000815250826117c3565b5050808061161190612444565b91505061134c565b507f74a8cd43c8d00dc9d1362706ecc5345c3b742ab3a4b3ab8d896c46b9ad6185226006600760009054906101000a900461ffff1661ffff16815481106116635761166261239e565b5b9060005260206000209060040201600101600760009054906101000a900461ffff16604051611693929190612ca6565b60405180910390a150565b611734816040516024016116b29190612cd6565b6040516020818303038152906040527f41304fac000000000000000000000000000000000000000000000000000000007bffffffffffffffffffffffffffffffffffffffffffffffffffffffff19166020820180517bffffffffffffffffffffffffffffffffffffffffffffffffffffffff83818316178352505050506112c3565b50565b60006a636f6e736f6c652e6c6f679050600080835160208501845afa505050565b61199c819050919050565b600061178b836000018373ffffffffffffffffffffffffffffffffffffffff1660001b61185f565b905092915050565b60006117bb836000018373ffffffffffffffffffffffffffffffffffffffff1660001b611882565b905092915050565b61185b82826040516024016117d9929190612cf8565b6040516020818303038152906040527f319af333000000000000000000000000000000000000000000000000000000007bffffffffffffffffffffffffffffffffffffffffffffffffffffffff19166020820180517bffffffffffffffffffffffffffffffffffffffffffffffffffffffff83818316178352505050506112c3565b5050565b600080836001016000848152602001908152602001600020541415905092915050565b600061188e838361185f565b6118e75782600001829080600181540180825580915050600190039060005260206000200160009091909190915055826000018054905083600101600084815260200190815260200160002081905550600190506118ec565b600090505b92915050565b82805482825590600052602060002090600f0160109004810192821561198b5791602002820160005b8382111561195b57835183826101000a81548161ffff021916908361ffff160217905550926020019260020160208160010104928301926001030261191b565b80156119895782816101000a81549061ffff021916905560020160208160010104928301926001030261195b565b505b50905061199891906119a6565b5090565b6119a4612d28565b565b5b808211156119bf5760008160009055506001016119a7565b5090565b600081519050919050565b600082825260208201905092915050565b6000819050602082019050919050565b600081519050919050565b600082825260208201905092915050565b6000819050602082019050919050565b6000819050919050565b611a2e81611a1b565b82525050565b6000611a408383611a25565b60208301905092915050565b6000602082019050919050565b6000611a64826119ef565b611a6e81856119fa565b9350611a7983611a0b565b8060005b83811015611aaa578151611a918882611a34565b9750611a9c83611a4c565b925050600181019050611a7d565b5085935050505092915050565b6000611ac38383611a59565b905092915050565b6000602082019050919050565b6000611ae3826119c3565b611aed81856119ce565b935083602082028501611aff856119df565b8060005b85811015611b3b5784840389528151611b1c8582611ab7565b9450611b2783611acb565b925060208a01995050600181019050611b03565b50829750879550505050505092915050565b60006020820190508181036000830152611b678184611ad8565b905092915050565b600081519050919050565b600082825260208201905092915050565b6000819050602082019050919050565b600081519050919050565b600082825260208201905092915050565b6000819050602082019050919050565b600081519050919050565b600082825260208201905092915050565b60005b83811015611c01578082015181840152602081019050611be6565b60008484015250505050565b6000601f19601f8301169050919050565b6000611c2982611bc7565b611c338185611bd2565b9350611c43818560208601611be3565b611c4c81611c0d565b840191505092915050565b6000611c638383611c1e565b905092915050565b6000602082019050919050565b6000611c8382611b9b565b611c8d8185611ba6565b935083602082028501611c9f85611bb7565b8060005b85811015611cdb5784840389528151611cbc8582611c57565b9450611cc783611c6b565b925060208a01995050600181019050611ca3565b50829750879550505050505092915050565b6000611cf98383611c78565b905092915050565b6000602082019050919050565b6000611d1982611b6f565b611d238185611b7a565b935083602082028501611d3585611b8b565b8060005b85811015611d715784840389528151611d528582611ced565b9450611d5d83611d01565b925060208a01995050600181019050611d39565b50829750879550505050505092915050565b60006020820190508181036000830152611d9d8184611d0e565b905092915050565b6000604051905090565b600080fd5b600080fd5b600080fd5b600080fd5b7f4e487b7100000000000000000000000000000000000000000000000000000000600052604160045260246000fd5b611dfb82611c0d565b810181811067ffffffffffffffff82111715611e1a57611e19611dc3565b5b80604052505050565b6000611e2d611da5565b9050611e398282611df2565b919050565b600067ffffffffffffffff821115611e5957611e58611dc3565b5b611e6282611c0d565b9050602081019050919050565b82818337600083830152505050565b6000611e91611e8c84611e3e565b611e23565b905082815260208101848484011115611ead57611eac611dbe565b5b611eb8848285611e6f565b509392505050565b600082601f830112611ed557611ed4611db9565b5b8135611ee5848260208601611e7e565b91505092915050565b600067ffffffffffffffff821115611f0957611f08611dc3565b5b602082029050602081019050919050565b600080fd5b611f2881611a1b565b8114611f3357600080fd5b50565b600081359050611f4581611f1f565b92915050565b6000611f5e611f5984611eee565b611e23565b90508083825260208201905060208402830185811115611f8157611f80611f1a565b5b835b81811015611faa5780611f968882611f36565b845260208401935050602081019050611f83565b5050509392505050565b600082601f830112611fc957611fc8611db9565b5b8135611fd9848260208601611f4b565b91505092915050565b60008060408385031215611ff957611ff8611daf565b5b600083013567ffffffffffffffff81111561201757612016611db4565b5b61202385828601611ec0565b925050602083013567ffffffffffffffff81111561204457612043611db4565b5b61205085828601611fb4565b9150509250929050565b600067ffffffffffffffff82111561207557612074611dc3565b5b602082029050602081019050919050565b600061ffff82169050919050565b61209d81612086565b81146120a857600080fd5b50565b6000813590506120ba81612094565b92915050565b60006120d36120ce8461205a565b611e23565b905080838252602082019050602084028301858111156120f6576120f5611f1a565b5b835b8181101561211f578061210b88826120ab565b8452602084019350506020810190506120f8565b5050509392505050565b600082601f83011261213e5761213d611db9565b5b813561214e8482602086016120c0565b91505092915050565b60006020828403121561216d5761216c611daf565b5b600082013567ffffffffffffffff81111561218b5761218a611db4565b5b61219784828501612129565b91505092915050565b6121a981612086565b82525050565b60006020820190506121c460008301846121a0565b92915050565b600081519050919050565b600082825260208201905092915050565b6000819050602082019050919050565b600081519050919050565b600082825260208201905092915050565b6000819050602082019050919050565b600073ffffffffffffffffffffffffffffffffffffffff82169050919050565b600061224d82612222565b9050919050565b61225d81612242565b82525050565b600061226f8383612254565b60208301905092915050565b6000602082019050919050565b6000612293826121f6565b61229d8185612201565b93506122a883612212565b8060005b838110156122d95781516122c08882612263565b97506122cb8361227b565b9250506001810190506122ac565b5085935050505092915050565b60006122f28383612288565b905092915050565b6000602082019050919050565b6000612312826121ca565b61231c81856121d5565b93508360208202850161232e856121e6565b8060005b8581101561236a578484038952815161234b85826122e6565b9450612356836122fa565b925060208a01995050600181019050612332565b50829750879550505050505092915050565b600060208201905081810360008301526123968184612307565b905092915050565b7f4e487b7100000000000000000000000000000000000000000000000000000000600052603260045260246000fd5b7f4e487b7100000000000000000000000000000000000000000000000000000000600052601160045260246000fd5b600061240782611a1b565b91507fffffffffffffffffffffffffffffffffffffffffffffffffffffffffffffffff8203612439576124386123cd565b5b600182019050919050565b600061244f82612086565b915061ffff8203612463576124626123cd565b5b600182019050919050565b600082825260208201905092915050565b7f496d706f737369626c6520746f20726567697374657221000000000000000000600082015250565b60006124b560178361246e565b91506124c08261247f565b602082019050919050565b600060208201905081810360008301526124e4816124a8565b9050919050565b60006124f682611a1b565b915061250183611a1b565b9250828203905081811115612519576125186123cd565b5b92915050565b600061252a82612086565b915061253583612086565b925082820261254381612086565b9150808214612555576125546123cd565b5b5092915050565b600060408201905061257160008301856121a0565b61257e60208301846121a0565b9392505050565b7f4e487b7100000000000000000000000000000000000000000000000000000000600052602260045260246000fd5b600060028204905060018216806125cc57607f821691505b6020821081036125df576125de612585565b5b50919050565b60008190508160005260206000209050919050565b60006020601f8301049050919050565b600082821b905092915050565b6000600883026126477fffffffffffffffffffffffffffffffffffffffffffffffffffffffffffffffff8261260a565b612651868361260a565b95508019841693508086168417925050509392505050565b6000819050919050565b600061268e61268961268484611a1b565b612669565b611a1b565b9050919050565b6000819050919050565b6126a883612673565b6126bc6126b482612695565b848454612617565b825550505050565b600090565b6126d16126c4565b6126dc81848461269f565b505050565b5b81811015612700576126f56000826126c9565b6001810190506126e2565b5050565b601f82111561274557612716816125e5565b61271f846125fa565b8101602085101561272e578190505b61274261273a856125fa565b8301826126e1565b50505b505050565b600082821c905092915050565b60006127686000198460080261274a565b1980831691505092915050565b60006127818383612757565b9150826002028217905092915050565b61279a82611bc7565b67ffffffffffffffff8111156127b3576127b2611dc3565b5b6127bd82546125b4565b6127c8828285612704565b600060209050601f8311600181146127fb57600084156127e9578287015190505b6127f38582612775565b86555061285b565b601f198416612809866125e5565b60005b828110156128315784890151825560018201915060208501945060208101905061280c565b8683101561284e578489015161284a601f891682612757565b8355505b6001600288020188555050505b505050505050565b600061286e82611bc7565b612878818561246e565b9350612888818560208601611be3565b61289181611c0d565b840191505092915050565b6128a581611a1b565b82525050565b600060408201905081810360008301526128c58185612863565b90506128d4602083018461289c565b9392505050565b6128e481612242565b82525050565b600060608201905081810360008301526129048186612863565b905061291360208301856128db565b81810360408301526129258184612863565b9050949350505050565b600061293a82612086565b915061294583612086565b9250828203905061ffff81111561295f5761295e6123cd565b5b92915050565b600061297082611a1b565b915061297b83611a1b565b9250828201905080821115612993576129926123cd565b5b92915050565b600081549050919050565b600082825260208201905092915050565b60008190508160005260206000209050919050565b600081546129d7816125b4565b6129e18186611bd2565b945060018216600081146129fc5760018114612a1257612a45565b60ff198316865281151560200286019350612a45565b612a1b856125e5565b60005b83811015612a3d57815481890152600182019150602081019050612a1e565b808801955050505b50505092915050565b6000612a5a83836129ca565b905092915050565b6000600182019050919050565b6000612a7a82612999565b612a8481856129a4565b935083602082028501612a96856129b5565b8060005b85811015612ad157848403895281612ab28582612a4e565b9450612abd83612a62565b925060208a01995050600181019050612a9a565b50829750879550505050505092915050565b60006040820190508181036000830152612afd8185612a6f565b9050612b0c60208301846121a0565b9392505050565b6000612b1e82612086565b9150612b2983612086565b9250828201905061ffff811115612b4357612b426123cd565b5b92915050565b7f4e487b7100000000000000000000000000000000000000000000000000000000600052601260045260246000fd5b6000612b8382611a1b565b9150612b8e83611a1b565b925082612b9e57612b9d612b49565b5b828206905092915050565b600081549050919050565b600082825260208201905092915050565b60008190508160005260206000209050919050565b60008160001c9050919050565b600073ffffffffffffffffffffffffffffffffffffffff82169050919050565b6000612c1a612c1583612bda565b612be7565b9050919050565b6000612c2d8254612c07565b9050919050565b6000600182019050919050565b6000612c4c82612ba9565b612c568185612bb4565b9350612c6183612bc5565b8060005b83811015612c9957612c7682612c21565b612c808882612263565b9750612c8b83612c34565b925050600181019050612c65565b5085935050505092915050565b60006040820190508181036000830152612cc08185612c41565b9050612ccf60208301846121a0565b9392505050565b60006020820190508181036000830152612cf08184612863565b905092915050565b60006040820190508181036000830152612d128185612863565b9050612d2160208301846128db565b9392505050565b7f4e487b7100000000000000000000000000000000000000000000000000000000600052605160045260246000fdfe416c6c20776f726b657273207375626d697474656420746865697220776f726b20666f7220726f756e64202573a264697066735822122075f3234f352a9f1de3f6faf42310a2a40f84660bf5ae2dec09100d1e0b70b57264736f6c63430008140033",
  "linkReferences": {},
  "deployedLinkReferences": {}
}